{
  "contractName": "RequestManager",
  "abi": [
    {
      "inputs": [
        {
          "internalType": "address",
          "name": "_projectsContract",
          "type": "address"
        }
      ],
      "stateMutability": "nonpayable",
      "type": "constructor"
    },
    {
      "anonymous": false,
      "inputs": [
        {
          "indexed": false,
          "internalType": "uint256",
          "name": "ratingId",
          "type": "uint256"
        },
        {
          "indexed": false,
          "internalType": "address",
          "name": "rater",
          "type": "address"
        },
        {
          "indexed": false,
          "internalType": "address",
          "name": "freelancer",
          "type": "address"
        },
        {
          "indexed": false,
          "internalType": "uint256",
          "name": "rating",
          "type": "uint256"
        }
      ],
      "name": "FreelancerRatingSubmitted",
      "type": "event"
    },
    {
      "anonymous": false,
      "inputs": [
        {
          "indexed": false,
          "internalType": "uint256",
          "name": "projectId",
          "type": "uint256"
        },
        {
          "indexed": false,
          "internalType": "uint256",
          "name": "milestoneId",
          "type": "uint256"
        },
        {
          "indexed": false,
          "internalType": "uint256",
          "name": "updatedRating",
          "type": "uint256"
        }
      ],
      "name": "MilestoneAccepted",
      "type": "event"
    },
    {
      "anonymous": false,
      "inputs": [
        {
          "indexed": true,
          "internalType": "uint256",
          "name": "reviewRequestId",
          "type": "uint256"
        },
        {
          "indexed": false,
          "internalType": "string",
          "name": "reason",
          "type": "string"
        }
      ],
      "name": "MilestoneReviewRequestRejected",
      "type": "event"
    },
    {
      "anonymous": false,
      "inputs": [
        {
          "indexed": false,
          "internalType": "uint256",
          "name": "requestId",
          "type": "uint256"
        },
        {
          "indexed": false,
          "internalType": "uint256",
          "name": "milestoneId",
          "type": "uint256"
        },
        {
          "indexed": false,
          "internalType": "string",
          "name": "cid",
          "type": "string"
        }
      ],
      "name": "MilestoneReviewRequestSent",
      "type": "event"
    },
    {
      "anonymous": false,
      "inputs": [
        {
          "indexed": false,
          "internalType": "uint256",
          "name": "projectId",
          "type": "uint256"
        },
        {
          "indexed": false,
          "internalType": "uint256",
          "name": "requestId",
          "type": "uint256"
        },
        {
          "indexed": false,
          "internalType": "address",
          "name": "employer",
          "type": "address"
        },
        {
          "indexed": false,
          "internalType": "address",
          "name": "freelancer",
          "type": "address"
        }
      ],
      "name": "ProjectCompleted",
      "type": "event"
    },
    {
      "anonymous": false,
      "inputs": [
        {
          "indexed": false,
          "internalType": "uint256",
          "name": "_reviewRequestId",
          "type": "uint256"
        }
      ],
      "name": "RejectionReasonAccepted",
      "type": "event"
    },
    {
      "anonymous": false,
      "inputs": [
        {
          "indexed": false,
          "internalType": "uint256",
          "name": "requestId",
          "type": "uint256"
        },
        {
          "indexed": false,
          "internalType": "address",
          "name": "freelancer",
          "type": "address"
        },
        {
          "indexed": false,
          "internalType": "address",
          "name": "escrowContract",
          "type": "address"
        }
      ],
      "name": "RequestAccepted",
      "type": "event"
    },
    {
      "anonymous": false,
      "inputs": [
        {
          "indexed": false,
          "internalType": "uint256",
          "name": "draftId",
          "type": "uint256"
        },
        {
          "indexed": false,
          "internalType": "uint256",
          "name": "requestId",
          "type": "uint256"
        },
        {
          "indexed": false,
          "internalType": "address",
          "name": "freelancer",
          "type": "address"
        },
        {
          "indexed": false,
          "internalType": "address",
          "name": "employer",
          "type": "address"
        }
      ],
      "name": "RequestDraftSent",
      "type": "event"
    },
    {
      "anonymous": false,
      "inputs": [
        {
          "indexed": false,
          "internalType": "uint256",
          "name": "requestId",
          "type": "uint256"
        },
        {
          "indexed": false,
          "internalType": "address",
          "name": "freelancer",
          "type": "address"
        }
      ],
      "name": "RequestRejected",
      "type": "event"
    },
    {
      "anonymous": false,
      "inputs": [
        {
          "indexed": false,
          "internalType": "uint256",
          "name": "requestId",
          "type": "uint256"
        },
        {
          "indexed": false,
          "internalType": "uint256",
          "name": "projectId",
          "type": "uint256"
        },
        {
          "indexed": false,
          "internalType": "address",
          "name": "freelancer",
          "type": "address"
        }
      ],
      "name": "RequestSent",
      "type": "event"
    },
    {
      "inputs": [],
      "name": "fileCount",
      "outputs": [
        {
          "internalType": "uint256",
          "name": "",
          "type": "uint256"
        }
      ],
      "stateMutability": "view",
      "type": "function",
      "constant": true
    },
    {
      "inputs": [],
      "name": "freelancerRatingCount",
      "outputs": [
        {
          "internalType": "uint256",
          "name": "",
          "type": "uint256"
        }
      ],
      "stateMutability": "view",
      "type": "function",
      "constant": true
    },
    {
      "inputs": [
        {
          "internalType": "uint256",
          "name": "",
          "type": "uint256"
        }
      ],
      "name": "freelancerRatings",
      "outputs": [
        {
          "internalType": "uint256",
          "name": "ratingId",
          "type": "uint256"
        },
        {
          "internalType": "uint256",
          "name": "requestId",
          "type": "uint256"
        },
        {
          "internalType": "address",
          "name": "rater",
          "type": "address"
        },
        {
          "internalType": "address",
          "name": "freelancer",
          "type": "address"
        },
        {
          "internalType": "uint256",
          "name": "rating",
          "type": "uint256"
        },
        {
          "internalType": "string",
          "name": "review",
          "type": "string"
        },
        {
          "internalType": "uint256",
          "name": "timestamp",
          "type": "uint256"
        }
      ],
      "stateMutability": "view",
      "type": "function",
      "constant": true
    },
    {
      "inputs": [
        {
          "internalType": "address",
          "name": "",
          "type": "address"
        },
        {
          "internalType": "uint256",
          "name": "",
          "type": "uint256"
        }
      ],
      "name": "freelancerRatingsList",
      "outputs": [
        {
          "internalType": "uint256",
          "name": "",
          "type": "uint256"
        }
      ],
      "stateMutability": "view",
      "type": "function",
      "constant": true
    },
    {
      "inputs": [
        {
          "internalType": "uint256",
          "name": "",
          "type": "uint256"
        },
        {
          "internalType": "uint256",
          "name": "",
          "type": "uint256"
        }
      ],
      "name": "milestoneFiles",
      "outputs": [
        {
          "internalType": "uint256",
          "name": "id",
          "type": "uint256"
        },
        {
          "internalType": "uint256",
          "name": "milestoneId",
          "type": "uint256"
        },
        {
          "internalType": "string",
          "name": "name",
          "type": "string"
        },
        {
          "internalType": "string",
          "name": "rid",
          "type": "string"
        },
        {
          "internalType": "string",
          "name": "cid",
          "type": "string"
        }
      ],
      "stateMutability": "view",
      "type": "function",
      "constant": true
    },
    {
      "inputs": [],
      "name": "milestoneReviewRequestCount",
      "outputs": [
        {
          "internalType": "uint256",
          "name": "",
          "type": "uint256"
        }
      ],
      "stateMutability": "view",
      "type": "function",
      "constant": true
    },
    {
      "inputs": [
        {
          "internalType": "uint256",
          "name": "",
          "type": "uint256"
        }
      ],
      "name": "milestoneReviewRequests",
      "outputs": [
        {
          "internalType": "uint256",
          "name": "id",
          "type": "uint256"
        },
        {
          "internalType": "uint256",
          "name": "milestoneId",
          "type": "uint256"
        },
        {
          "internalType": "address",
          "name": "freelancer",
          "type": "address"
        },
        {
          "internalType": "string",
          "name": "cid",
          "type": "string"
        },
        {
          "internalType": "bool",
          "name": "reviewed",
          "type": "bool"
        }
      ],
      "stateMutability": "view",
      "type": "function",
      "constant": true
    },
    {
      "inputs": [],
      "name": "projectCompletionCount",
      "outputs": [
        {
          "internalType": "uint256",
          "name": "",
          "type": "uint256"
        }
      ],
      "stateMutability": "view",
      "type": "function",
      "constant": true
    },
    {
      "inputs": [
        {
          "internalType": "uint256",
          "name": "",
          "type": "uint256"
        }
      ],
      "name": "projectCompletions",
      "outputs": [
        {
          "internalType": "uint256",
          "name": "completionId",
          "type": "uint256"
        },
        {
          "internalType": "uint256",
          "name": "projectId",
          "type": "uint256"
        },
        {
          "internalType": "uint256",
          "name": "requestId",
          "type": "uint256"
        },
        {
          "internalType": "address",
          "name": "employer",
          "type": "address"
        },
        {
          "internalType": "address",
          "name": "freelancer",
          "type": "address"
        },
        {
          "internalType": "bool",
          "name": "isCompleted",
          "type": "bool"
        },
        {
          "internalType": "uint256",
          "name": "completionTime",
          "type": "uint256"
        }
      ],
      "stateMutability": "view",
      "type": "function",
      "constant": true
    },
    {
      "inputs": [],
      "name": "projectsContract",
      "outputs": [
        {
          "internalType": "contract Projects",
          "name": "",
          "type": "address"
        }
      ],
      "stateMutability": "view",
      "type": "function",
      "constant": true
    },
    {
      "inputs": [],
      "name": "requestCount",
      "outputs": [
        {
          "internalType": "uint256",
          "name": "",
          "type": "uint256"
        }
      ],
      "stateMutability": "view",
      "type": "function",
      "constant": true
    },
    {
      "inputs": [],
      "name": "requestDraftCount",
      "outputs": [
        {
          "internalType": "uint256",
          "name": "",
          "type": "uint256"
        }
      ],
      "stateMutability": "view",
      "type": "function",
      "constant": true
    },
    {
      "inputs": [
        {
          "internalType": "uint256",
          "name": "",
          "type": "uint256"
        }
      ],
      "name": "requestDrafts",
      "outputs": [
        {
          "internalType": "uint256",
          "name": "id",
          "type": "uint256"
        },
        {
          "internalType": "uint256",
          "name": "requestId",
          "type": "uint256"
        },
        {
          "internalType": "uint256",
          "name": "projectId",
          "type": "uint256"
        },
        {
          "internalType": "address",
          "name": "freelancer",
          "type": "address"
        },
        {
          "internalType": "address",
          "name": "employer",
          "type": "address"
        },
        {
          "internalType": "string",
          "name": "draftContent",
          "type": "string"
        },
        {
          "internalType": "uint256",
          "name": "timestamp",
          "type": "uint256"
        },
        {
          "internalType": "bool",
          "name": "reviewed",
          "type": "bool"
        }
      ],
      "stateMutability": "view",
      "type": "function",
      "constant": true
    },
    {
      "inputs": [
        {
          "internalType": "uint256",
          "name": "",
          "type": "uint256"
        }
      ],
      "name": "requests",
      "outputs": [
        {
          "internalType": "uint256",
          "name": "projectId",
          "type": "uint256"
        },
        {
          "internalType": "address",
          "name": "freelancer",
          "type": "address"
        },
        {
          "internalType": "uint256",
          "name": "freelancerRating",
          "type": "uint256"
        },
        {
          "internalType": "enum RequestManager.RequestStatus",
          "name": "status",
          "type": "uint8"
        },
        {
          "internalType": "contract Escrow",
          "name": "escrowContract",
          "type": "address"
        }
      ],
      "stateMutability": "view",
      "type": "function",
      "constant": true
    },
    {
      "inputs": [],
      "name": "responseCount",
      "outputs": [
        {
          "internalType": "uint256",
          "name": "",
          "type": "uint256"
        }
      ],
      "stateMutability": "view",
      "type": "function",
      "constant": true
    },
    {
      "inputs": [
        {
          "internalType": "uint256",
          "name": "",
          "type": "uint256"
        }
      ],
      "name": "reviewResponses",
      "outputs": [
        {
          "internalType": "uint256",
          "name": "id",
          "type": "uint256"
        },
        {
          "internalType": "uint256",
          "name": "milestoneId",
          "type": "uint256"
        },
        {
          "internalType": "address",
          "name": "freelancer",
          "type": "address"
        },
        {
          "internalType": "string",
          "name": "response",
          "type": "string"
        },
        {
          "internalType": "bool",
          "name": "accepted",
          "type": "bool"
        }
      ],
      "stateMutability": "view",
      "type": "function",
      "constant": true
    },
    {
      "inputs": [
        {
          "internalType": "uint256",
          "name": "_projectId",
          "type": "uint256"
        },
        {
          "internalType": "uint256",
          "name": "_freelancerRating",
          "type": "uint256"
        }
      ],
      "name": "sendRequest",
      "outputs": [],
      "stateMutability": "nonpayable",
      "type": "function"
    },
    {
      "inputs": [
        {
          "internalType": "uint256",
          "name": "_requestId",
          "type": "uint256"
        }
      ],
      "name": "acceptRequest",
      "outputs": [],
      "stateMutability": "payable",
      "type": "function",
      "payable": true
    },
    {
      "inputs": [
        {
          "internalType": "uint256",
          "name": "_requestId",
          "type": "uint256"
        }
      ],
      "name": "rejectRequest",
      "outputs": [],
      "stateMutability": "nonpayable",
      "type": "function"
    },
    {
      "inputs": [
        {
          "internalType": "uint256",
          "name": "_requestId",
          "type": "uint256"
        }
      ],
      "name": "getRequest",
      "outputs": [
        {
          "components": [
            {
              "internalType": "uint256",
              "name": "projectId",
              "type": "uint256"
            },
            {
              "internalType": "address",
              "name": "freelancer",
              "type": "address"
            },
            {
              "internalType": "uint256",
              "name": "freelancerRating",
              "type": "uint256"
            },
            {
              "internalType": "enum RequestManager.RequestStatus",
              "name": "status",
              "type": "uint8"
            },
            {
              "internalType": "contract Escrow",
              "name": "escrowContract",
              "type": "address"
            }
          ],
          "internalType": "struct RequestManager.Request",
          "name": "",
          "type": "tuple"
        }
      ],
      "stateMutability": "view",
      "type": "function",
      "constant": true
    },
    {
      "inputs": [],
      "name": "viewAllRequests",
      "outputs": [
        {
          "internalType": "uint256[]",
          "name": "requestIds",
          "type": "uint256[]"
        },
        {
          "internalType": "uint256[]",
          "name": "projectIds",
          "type": "uint256[]"
        },
        {
          "internalType": "address[]",
          "name": "freelancers",
          "type": "address[]"
        },
        {
          "internalType": "uint256[]",
          "name": "freelancerRatings",
          "type": "uint256[]"
        },
        {
          "internalType": "enum RequestManager.RequestStatus[]",
          "name": "statuses",
          "type": "uint8[]"
        },
        {
          "internalType": "address[]",
          "name": "escrowContracts",
          "type": "address[]"
        }
      ],
      "stateMutability": "view",
      "type": "function",
      "constant": true
    },
    {
      "inputs": [],
      "name": "viewAllReviewResponses",
      "outputs": [
        {
          "internalType": "uint256[]",
          "name": "responseIds",
          "type": "uint256[]"
        },
        {
          "internalType": "uint256[]",
          "name": "milestoneIds",
          "type": "uint256[]"
        },
        {
          "internalType": "address[]",
          "name": "freelancers",
          "type": "address[]"
        },
        {
          "internalType": "string[]",
          "name": "responses",
          "type": "string[]"
        },
        {
          "internalType": "bool[]",
          "name": "acceptedStatuses",
          "type": "bool[]"
        }
      ],
      "stateMutability": "view",
      "type": "function",
      "constant": true
    },
    {
      "inputs": [],
      "name": "viewRequestsByEmployer",
      "outputs": [
        {
          "internalType": "uint256[]",
          "name": "requestIds",
          "type": "uint256[]"
        },
        {
          "internalType": "uint256[]",
          "name": "projectIds",
          "type": "uint256[]"
        },
        {
          "internalType": "address[]",
          "name": "freelancers",
          "type": "address[]"
        },
        {
          "internalType": "uint256[]",
          "name": "freelancerRatings",
          "type": "uint256[]"
        },
        {
          "internalType": "enum RequestManager.RequestStatus[]",
          "name": "statuses",
          "type": "uint8[]"
        },
        {
          "internalType": "address[]",
          "name": "escrowContracts",
          "type": "address[]"
        }
      ],
      "stateMutability": "view",
      "type": "function",
      "constant": true
    },
    {
      "inputs": [
        {
          "internalType": "uint256",
          "name": "_milestoneId",
          "type": "uint256"
        },
        {
          "internalType": "string",
          "name": "_cid",
          "type": "string"
        },
        {
          "internalType": "address",
          "name": "_freelancer",
          "type": "address"
        }
      ],
      "name": "sendMilestoneReviewRequest",
      "outputs": [],
      "stateMutability": "nonpayable",
      "type": "function"
    },
    {
      "inputs": [],
      "name": "viewAllMilestoneReviewRequests",
      "outputs": [
        {
          "internalType": "uint256[]",
          "name": "requestIds",
          "type": "uint256[]"
        },
        {
          "internalType": "uint256[]",
          "name": "milestoneIds",
          "type": "uint256[]"
        },
        {
          "internalType": "address[]",
          "name": "freelancers",
          "type": "address[]"
        },
        {
          "internalType": "string[]",
          "name": "cids",
          "type": "string[]"
        },
        {
          "internalType": "bool[]",
          "name": "reviewedStatuses",
          "type": "bool[]"
        }
      ],
      "stateMutability": "view",
      "type": "function",
      "constant": true
    },
    {
      "inputs": [
        {
          "internalType": "uint256",
          "name": "_reviewRequestId",
          "type": "uint256"
        },
        {
          "internalType": "uint256",
          "name": "_projectId",
          "type": "uint256"
        }
      ],
      "name": "getEscrowAccountFromReviewRequest",
      "outputs": [
        {
          "internalType": "contract Escrow",
          "name": "",
          "type": "address"
        }
      ],
      "stateMutability": "view",
      "type": "function",
      "constant": true
    },
    {
      "inputs": [
        {
          "internalType": "uint256",
          "name": "_reviewRequestId",
          "type": "uint256"
        },
        {
          "internalType": "uint256",
          "name": "_projId",
          "type": "uint256"
        }
      ],
      "name": "acceptMilestoneReviewRequest",
      "outputs": [],
      "stateMutability": "payable",
      "type": "function",
      "payable": true
    },
    {
      "inputs": [
        {
          "internalType": "uint256",
          "name": "_reviewRequestId",
          "type": "uint256"
        },
        {
          "internalType": "string",
          "name": "_reason",
          "type": "string"
        }
      ],
      "name": "rejectMilestoneReviewRequest",
      "outputs": [],
      "stateMutability": "nonpayable",
      "type": "function"
    },
    {
      "inputs": [
        {
          "internalType": "uint256",
          "name": "_reviewRequestId",
          "type": "uint256"
        }
      ],
      "name": "acceptRejectionReason",
      "outputs": [],
      "stateMutability": "nonpayable",
      "type": "function"
    },
    {
      "inputs": [
        {
          "internalType": "address",
          "name": "freelancer",
          "type": "address"
        }
      ],
      "name": "viewAcceptedProjectsByFreelancer",
      "outputs": [
        {
          "internalType": "uint256[]",
          "name": "ids",
          "type": "uint256[]"
        },
        {
          "internalType": "string[]",
          "name": "names",
          "type": "string[]"
        },
        {
          "internalType": "string[]",
          "name": "descriptions",
          "type": "string[]"
        },
        {
          "internalType": "uint256[]",
          "name": "rewards",
          "type": "uint256[]"
        },
        {
          "internalType": "enum Projects.Status[]",
          "name": "statuses",
          "type": "uint8[]"
        },
        {
          "internalType": "address[]",
          "name": "employers",
          "type": "address[]"
        }
      ],
      "stateMutability": "view",
      "type": "function",
      "constant": true
    },
    {
      "inputs": [
        {
          "internalType": "uint256",
          "name": "_milestoneId",
          "type": "uint256"
        },
        {
          "internalType": "string",
          "name": "_name",
          "type": "string"
        },
        {
          "internalType": "string",
          "name": "_rid",
          "type": "string"
        },
        {
          "internalType": "string",
          "name": "_cid",
          "type": "string"
        }
      ],
      "name": "addFile",
      "outputs": [],
      "stateMutability": "nonpayable",
      "type": "function"
    },
    {
      "inputs": [
        {
          "internalType": "uint256",
          "name": "_milestoneId",
          "type": "uint256"
        }
      ],
      "name": "viewAllFilesForMilestone",
      "outputs": [
        {
          "internalType": "uint256[]",
          "name": "ids",
          "type": "uint256[]"
        },
        {
          "internalType": "uint256[]",
          "name": "milestoneIds",
          "type": "uint256[]"
        },
        {
          "internalType": "string[]",
          "name": "names",
          "type": "string[]"
        },
        {
          "internalType": "string[]",
          "name": "rids",
          "type": "string[]"
        },
        {
          "internalType": "string[]",
          "name": "cids",
          "type": "string[]"
        }
      ],
      "stateMutability": "view",
      "type": "function",
      "constant": true
    },
    {
      "inputs": [
        {
          "internalType": "uint256",
          "name": "_requestId",
          "type": "uint256"
        },
        {
          "internalType": "string",
          "name": "_draftContent",
          "type": "string"
        }
      ],
      "name": "sendRequestDraft",
      "outputs": [],
      "stateMutability": "nonpayable",
      "type": "function"
    },
    {
      "inputs": [
        {
          "internalType": "uint256",
          "name": "_requestId",
          "type": "uint256"
        }
      ],
      "name": "getRequestDrafts",
      "outputs": [
        {
          "components": [
            {
              "internalType": "uint256",
              "name": "id",
              "type": "uint256"
            },
            {
              "internalType": "uint256",
              "name": "requestId",
              "type": "uint256"
            },
            {
              "internalType": "uint256",
              "name": "projectId",
              "type": "uint256"
            },
            {
              "internalType": "address",
              "name": "freelancer",
              "type": "address"
            },
            {
              "internalType": "address",
              "name": "employer",
              "type": "address"
            },
            {
              "internalType": "string",
              "name": "draftContent",
              "type": "string"
            },
            {
              "internalType": "uint256",
              "name": "timestamp",
              "type": "uint256"
            },
            {
              "internalType": "bool",
              "name": "reviewed",
              "type": "bool"
            }
          ],
          "internalType": "struct RequestManager.RequestDraft[]",
          "name": "",
          "type": "tuple[]"
        }
      ],
      "stateMutability": "view",
      "type": "function",
      "constant": true
    },
    {
      "inputs": [
        {
          "internalType": "uint256",
          "name": "_requestId",
          "type": "uint256"
        },
        {
          "internalType": "uint256",
          "name": "_rating",
          "type": "uint256"
        },
        {
          "internalType": "string",
          "name": "_review",
          "type": "string"
        }
      ],
      "name": "rateFreelancer",
      "outputs": [],
      "stateMutability": "nonpayable",
      "type": "function"
    },
    {
      "inputs": [
        {
          "internalType": "address",
          "name": "_freelancer",
          "type": "address"
        }
      ],
      "name": "getFreelancerRatings",
      "outputs": [
        {
          "components": [
            {
              "internalType": "uint256",
              "name": "ratingId",
              "type": "uint256"
            },
            {
              "internalType": "uint256",
              "name": "requestId",
              "type": "uint256"
            },
            {
              "internalType": "address",
              "name": "rater",
              "type": "address"
            },
            {
              "internalType": "address",
              "name": "freelancer",
              "type": "address"
            },
            {
              "internalType": "uint256",
              "name": "rating",
              "type": "uint256"
            },
            {
              "internalType": "string",
              "name": "review",
              "type": "string"
            },
            {
              "internalType": "uint256",
              "name": "timestamp",
              "type": "uint256"
            }
          ],
          "internalType": "struct RequestManager.FreelancerRating[]",
          "name": "",
          "type": "tuple[]"
        }
      ],
      "stateMutability": "view",
      "type": "function",
      "constant": true
    },
    {
      "inputs": [
        {
          "internalType": "address",
          "name": "_freelancer",
          "type": "address"
        }
      ],
      "name": "getFreelancerAverageRating",
      "outputs": [
        {
          "internalType": "uint256",
          "name": "",
          "type": "uint256"
        }
      ],
      "stateMutability": "view",
      "type": "function",
      "constant": true
    },
    {
      "inputs": [
        {
          "internalType": "uint256",
          "name": "_requestId",
          "type": "uint256"
        }
      ],
      "name": "completeProject",
      "outputs": [],
      "stateMutability": "nonpayable",
      "type": "function"
    },
    {
      "inputs": [
        {
          "internalType": "uint256",
          "name": "_projectId",
          "type": "uint256"
        }
      ],
      "name": "getProjectCompletion",
      "outputs": [
        {
          "components": [
            {
              "internalType": "uint256",
              "name": "completionId",
              "type": "uint256"
            },
            {
              "internalType": "uint256",
              "name": "projectId",
              "type": "uint256"
            },
            {
              "internalType": "uint256",
              "name": "requestId",
              "type": "uint256"
            },
            {
              "internalType": "address",
              "name": "employer",
              "type": "address"
            },
            {
              "internalType": "address",
              "name": "freelancer",
              "type": "address"
            },
            {
              "internalType": "bool",
              "name": "isCompleted",
              "type": "bool"
            },
            {
              "internalType": "uint256",
              "name": "completionTime",
              "type": "uint256"
            }
          ],
          "internalType": "struct RequestManager.ProjectCompletion",
          "name": "",
          "type": "tuple"
        }
      ],
      "stateMutability": "view",
      "type": "function",
      "constant": true
    }
  ],
  "bytecode": "0x608034607057614cf280380390601f19601f83011683019183831067ffffffffffffffff84111760755780849260209460405283398101031260705751600160a060020a0381169081900360705760008054600160a060020a031916919091179055604051614c4d90816100a58239f35b600080fd5b7f4e487b7100000000000000000000000000000000000000000000000000000000600052604160045260246000fdfe610200604052600436101561001357600080fd5b6000610160527c0100000000000000000000000000000000000000000000000000000000610160513504806313e43248146135d45780631a79631514612fe65780631b0f350f14612b8f5780632245f152146128b65780632d7788db146127ca57806331eb2af41461266f5780633a760554146124de57806343953519146124be57806344922e2d1461220b5780634922f881146121eb5780634ba1f09814611f5f5780634bd335b814611f345780634d54863a14611b5d5780634d758c29146117c05780635badbe4c146117a05780635fc9fe371461175157806372fc224c1461173157806378a4196d146116d35780637ce250f5146114575780637e670ea2146113b257806381d12c581461134157806386fe6d4f1461124757806394e150291461122757806397d445e61461117b5780639be8d8f9146110d95780639f935bf9146110b9578063a62abfba14611042578063a7080a1814610f35578063a817229a14610dfc578063b3db5c9414610b22578063b4d4fcb714610a03578063bb6866e11461099f578063bef3edc414610903578063c5597bbb146108e3578063c58343ef146107d9578063c6285100146102e5578063d27dc80c1461024a578063e8b13ff71461021f5763ed3bb680146101ee57600080fd5b3461021857602061020761020136613957565b90614475565b600160a060020a0360405191168152f35b6101605180fd5b3461021857602036600319011261021857602061024261023d613b37565b6143a3565b604051908152f35b34610218576020366003190112610218576004356101605152600d60205260e06040610160512080549060ff740100000000000000000000000000000000000000006001830154926002810154600160a060020a03600383015416906005600484015493015495604051978852602088015260408701526060860152600160a060020a03811660808601520416151560a083015260c0820152f35b346102185760803660031901126102185760043560243567ffffffffffffffff811161021857610319903690600401613a50565b60443567ffffffffffffffff811161021857610339903690600401613a50565b9160643567ffffffffffffffff81116102185761035a903690600401613a50565b91600454916040519261036c8461396d565b8352602083019080825260408401928352606084019586526080840194855261016051526003602052604061016051208054680100000000000000008110156105ed576103be91600182018155613c9a565b9390936107ba57518355516001830155518051600283019167ffffffffffffffff82116105ed576103ef8354613b4d565b601f811161075a575b5060209082906001601f8311146106e85761042b928291610160519261060a575b50509060080260020a60001904191690565b906002021790555b60038101925192835167ffffffffffffffff81116105ed576104558254613b4d565b601f8111610688575b5060206001601f8311146106155781806104919260049798610160519261060a5750509060080260020a60001904191690565b906002021790555b01905180519067ffffffffffffffff82116105ed576104b88354613b4d565b601f811161058d575b5060209082906001601f83111461051b576104f392829161016051926105105750509060080260020a60001904191690565b906002021790555b610506600454613d3d565b6004556101605180f35b015190508580610419565b9050601f1983169184610160515280610160512092610160515b81811061057557509160029391856001969410610559575b505050020190556104fb565b01516008601f84160260020a600019041916905584808061054d565b91936020600181928787015181550195019201610535565b828111156104c157836101605152602061016051206020601f85010490602085106105e2575b601f82602092019301040390610160515b8281106105d25750506104c1565b61016051828201556001016105c4565b6101605191506105b3565b60e060020a634e487b710261016051526041600452602461016051fd5b015190508880610419565b601f1982169083610160515280610160512091610160515b81811061067057509160049697849260019560029510610654575b50505002019055610499565b01516008601f84160260020a6000190419169055878080610648565b9192602060018192868c01518155019401920161062d565b8181111561045e57826101605152602061016051206020601f84010490602084106106dd575b601f82602092019301040390610160515b8281106106cd57505061045e565b61016051828201556001016106bf565b6101605191506106ae565b9050601f1983169184610160515280610160512092610160515b81811061074257509160029391856001969410610726575b50505002019055610433565b01516008601f84160260020a600019041916905587808061071a565b91936020600181928787015181550195019201610702565b828111156103f857836101605152602061016051206020601f85010490602085106107af575b601f82602092019301040390610160515b82811061079f5750506103f8565b6101605182820155600101610791565b610160519150610780565b60e060020a634e487b7102610160515261016051600452602461016051fd5b34610218576020366003190112610218576004356040516107f98161396d565b610160518152610160516020820152610160516040820152610160516060820152608061016051910152806101605152600560205261084c600160a060020a036001604061016051200154161515614157565b6101605152600560205260a060406101605120600160a060020a03604051916108748361396d565b805483526108da82600183015416602085019081526003600284015493604087019485520154928460608701926108ae60ff871685613e80565b8161010060808a019704168652604051975188525116602087015251604086015251606085019061388f565b51166080820152f35b346102185761016051366003190112610218576020600254604051908152f35b34610218576020366003190112610218576004356101605152600b602052604061016051208054600182015491610995600160a060020a0360028301541691600160a060020a03600382015416600482015490600661096460058501613b8b565b930154946040519788978852602088015260408701526060860152608085015260e060a085015260e0840190613abc565b9060c08301520390f35b3461021857602036600319011261021857600435610160515260076020526040610160512080546109ff600183015492600160a060020a036002820154169060ff60046109ee60038401613b8b565b920154169160405195869586613c2e565b0390f35b34610218576101605136600319011261021857600254610a2281613e3b565b610a2b82613e3b565b91610a3581613e3b565b610a3e826141c6565b90610a4883613e3b565b9260015b81811115610a68575050906109ff929160405195869586613cb6565b806101605152600160205260406101605120908154600019820190828211610b055760ff6004610b0095610af693610aa0868e613e6d565b526001810154610ab0868f613e6d565b526002810154600160a060020a0316610ac9868b613e6d565b52610ad660038201613b8b565b610ae0868c613e6d565b52610aeb858b613e6d565b500154169188613e6d565b9015159052613d3d565b610a4c565b60e060020a634e487b710261016051526011600452602461016051fd5b3461021857610b3036613957565b9080151580610d6c575b15610d2557600160a060020a036101605154166040519060e360020a631e1e7e590282528260048301528160248161016051935afa908115610d17576101605191610cec575b506002811015610c8857600103610ca557610b9c600654613d3d565b90816006556003604051610baf8161396d565b828152602081019433865260408201908152600160a060020a03606083019661016051885260808401966101605188526101605152600560205260406101605120935184555116600160a060020a03600184019116600160a060020a0319825416179055516002820155019251916003831015610c88577fe697eb68c0228bd7d4e553246a2a86e8402d0895e45092ef8ae87b4cfd29f01693600160a060020a03610c6b9260609560ff80198554169116178355511690614210565b600654906040519182526020820152336040820152a16101605180f35b60e060020a634e487b710261016051526021600452602461016051fd5b606460405160e560020a62461bcd02815260206004820152601360248201527f50726f6a656374206973206e6f74206f70656e000000000000000000000000006044820152fd5b610d0b91503d8061016051833e610d0381836139db565b810190613da7565b50935050505083610b80565b6040513d61016051823e3d90fd5b606460405160e560020a62461bcd02815260206004820152601260248201527f496e76616c69642070726f6a65637420494400000000000000000000000000006044820152fd5b5060046020600160a060020a03610160515416604051928380927f36fbad260000000000000000000000000000000000000000000000000000000082525afa908115610d17576101605191610dc5575b50811115610b3a565b90506020813d602011610df4575b81610de0602093836139db565b81010312610def575183610dbc565b600080fd5b3d9150610dd3565b3461021857602036600319011261021857600435806101605152600760205260406101605120600160a060020a036002820154163303610ec8576004019081549060ff8216610e81577f25fa961293610a63a633d14b93d5aa91df30ab4131e3e197fbb148988f45f2fa92600160209360ff1916179055604051908152a16101605180f35b606460405160e560020a62461bcd02815260206004820152601f60248201527f526576696577207265717565737420616c7265616479207265766965776564006044820152fd5b608460405160e560020a62461bcd02815260206004820152603360248201527f4f6e6c792074686520667265656c616e6365722063616e20616363657074207460448201527f68652072656a656374696f6e20726561736f6e000000000000000000000000006064820152fd5b34610218576101605136600319011261021857600654610f5481613e3b565b610f5d82613e3b565b91610f6781613e3b565b610f7082613e3b565b610f7983613e3b565b91610f8384613e3b565b9360015b81811115610fa4575050906109ff939291604051968796876138b5565b806101605152600560205260406101605120906000198101818111610b0557611037600160a060020a03610100600361103d968e878f88610fe491613e6d565b52815490610ff3908890613e6d565b5260018101548416611005878c613e6d565b526002810154611015878d613e6d565b52015461102e60ff8216611029878e613e6d565b613e80565b04169189613e6d565b52613d3d565b610f87565b346102185760203660031901126102185760e0611060600435614262565b60c060405191805183526020810151602084015260408101516040840152600160a060020a036060820151166060840152600160a060020a03608082015116608084015260a0810151151560a0840152015160c0820152f35b346102185761016051366003190112610218576020600e54604051908152f35b346102185761016051366003190112610218576008546110f881613e3b565b61110182613e3b565b9161110b81613e3b565b611114826141c6565b9061111e83613e3b565b9260015b8181111561113e575050906109ff929160405195869586613cb6565b806101605152600760205260406101605120908154600019820190828211610b055760ff600461117695610af693610aa0868e613e6d565b611122565b3461021857602036600319011261021857600435610160515260096020526040610160512080546001820154916002810154611216600160a060020a03600384015416600160a060020a036004850154166111d860058601613b8b565b9160ff6007600688015497015416946040519889988952602089015260408801526060870152608086015261010060a0860152610100850190613abc565b9160c0840152151560e08301520390f35b346102185761016051366003190112610218576020600854604051908152f35b346102185760603660031901126102185760043560243567ffffffffffffffff81116102185761127b903690600401613a6b565b909190604435600160a060020a03811690819003610218577fbfc58ffde775327d37ac02c637219967f9f1d0d5dae07e75af5d1ad5be35436093611315611337926112c7600854613d3d565b80600855604051916112d88361396d565b81835287602084015260408301526112f1368786613a19565b60608301526101605160808301526101605152600760205260406101605120613f73565b60085492604051948594855260208501526060604085015260608401916141a5565b0390a16101605180f35b34610218576020366003190112610218576004356101605152600560205260a060406101605120600160a060020a0361010082549282600182015416906003600282015491015491604051958652602086015260408501526113a96060850160ff831661388f565b04166080820152f35b34610218576113c036613957565b906101605152600360205260406101605120908154811015610218576113e591613c9a565b5080546109ff60018301549261144961140060028301613b8b565b9161143b61141c600461141560038501613b8b565b9301613b8b565b936040519788978852602088015260a0604088015260a0870190613abc565b908582036060870152613abc565b908382036080850152613abc565b3461021857602036600319011261021857600160a060020a03611478613b37565b166101605152600f602052604061016051206040518082602082945493848152019061016051526020610160512092610160515b8181106116ba5750506114c1925003826139db565b8051906114cd82613e23565b916114db60405193846139db565b8083526114ea601f1991613e23565b01610160515b818110611666575050610160515b81518110156115a6578061151460019284613e6d565b516101605152600b60205260406101605120600660405191611535836139a2565b80548352848101546020840152600160a060020a036002820154166040840152600160a060020a0360038201541660608401526004810154608084015261157e60058201613b8b565b60a0840152015460c08201526115948286613e6d565b5261159f8185613e6d565b50016114fe565b8260405180916020820160208352815180915260408301906020604081830286010193019161016051905b8282106115e057505050500390f35b919360019193955060208091603f19898203018552875190815181528282015183820152600160a060020a036040830151166040820152600160a060020a0360608301511660608201526080820151608082015260c08061165060a085015160e060a086015260e0850190613abc565b93015191015296019201920185949391926115d1565b602090604051611675816139a2565b6101605181526101605183820152610160516040820152610160516060820152610160516080820152606060a08201526101605160c0820152828287010152016114f0565b84548352600194850194869450602090930192016114ac565b34610218576040366003190112610218576116ec613b37565b600160a060020a0360243591166101605152600f6020526040610160512080548210156102185760209161171f91613c69565b90546008604051920260020a90048152f35b346102185761016051366003190112610218576020600c54604051908152f35b3461021857602036600319011261021857600435610160515260016020526040610160512080546109ff600183015492600160a060020a036002820154169060ff60046109ee60038401613b8b565b346102185761016051366003190112610218576020600654604051908152f35b34610218576020366003190112610218576117d9613b37565b6006546117e581613e3b565b916117ef826141c6565b906117f9836141c6565b60e05261180583613e3b565b60c05261181183613e3b565b60a05261181d83613e3b565b608052610160519260015b818111156119e75750505061183c82613e3b565b91611846816141c6565b61184f826141c6565b9061185983613e3b565b9261186381613e3b565b9461186d82613e3b565b97610160515b83811061192257505050506118c992916118ad6118bb9261189f6040519860c08a5260c08a019061381e565b9088820360208a0152613ae1565b908682036040880152613ae1565b90848203606086015261381e565b82810360808401526020808351928381520192019061016051905b8082106118ff5784806109ff868983820360a0850152613852565b9091928351906002821015610c88576020816001938293520194019201906118e4565b61192c8183613e6d565b51611937828b613e6d565b526119428184613e6d565b5161194d8287613e6d565b526119588186613e6d565b506119658160e051613e6d565b516119708288613e6d565b5261197b8187613e6d565b506119888160c051613e6d565b516119938289613e6d565b526119a08160a051613e6d565b51906002821015610c88576119c06001926119bb838c613e6d565b614256565b600160a060020a036119d482608051613e6d565b51166119e0828d613e6d565b5201611873565b80610160515260056020526040610160512060ff6003820154166003811015610c885760011480611b3e575b611a27575b50611a2290613d3d565b611828565b9094600160a060020a036101605154169154916040519260e360020a631e1e7e5902845260048401528260248161016051935afa908115610d175787611b0392611a22946101605161016051610160519061016051928761016051956101605197611b0a575b50611a9c90611ae69798613e6d565b52611aa7878d613e6d565b52611ab2868c613e6d565b50611abf8660e051613e6d565b52611acc8560e051613e6d565b50611ad98560c051613e6d565b526119bb8460a051613e6d565b600160a060020a03611afa83608051613e6d565b91169052613d3d565b9490611a18565b9250935050611ae69450611a9c9350611b3091503d8061016051833e610d0381836139db565b975095909491939190611a8d565b50600160a060020a03600182015416600160a060020a03851614611a13565b346102185760403660031901126102185760043560243567ffffffffffffffff811161021857611b91903690600401613a50565b9080610160515260056020526040610160512090600160a060020a03600183015416611bbe811515614109565b3303611ec757600160a060020a03610160515416918054926040519360e360020a631e1e7e5902855260048501528360248161016051935afa928315610d17576101605193611ea2575b50611c14600a54613d3d565b9081600a55549060405191611c28836139be565b818352600160a060020a0360208401918583526040850190815281606086013381526080870192828a16845260a088019a8b5260c088019542875260e089019761016051895261016051526009602052604061016051209851895551600189015551600288015551168260038701911683198254161790555116600160a060020a03600485019116600160a060020a031982541617905560058301955195865167ffffffffffffffff81116105ed57611ce18254613b4d565b601f8111611e42575b5060206001601f831114611da8579181611d458160079694611d699998967f66055127df8271016bc51ecc70f8e60e872c693340c3db56a0024f27116e70269d6101605192611d9d5750509060080260020a60001904191690565b906002021790555b51600684015551151591019060ff801983541691151516179055565b600a546040805191825260208201929092523391810191909152600160a060020a0390911660608201528060808101611337565b015190508d80610419565b601f1982169083610160515280610160512091610160515b818110611e2a575083611d69989795937f66055127df8271016bc51ecc70f8e60e872c693340c3db56a0024f27116e70269c6001946007999760029510611e0e575b50505002019055611d4d565b01516008601f84160260020a60001904191690558c8080611e02565b9192602060018192868f015181550194019201611dc0565b81811115611cea57826101605152602061016051206020601f8401049060208410611e97575b601f82602092019301040390610160515b828110611e87575050611cea565b6101605182820155600101611e79565b610160519150611e68565b611eba9193503d8061016051833e610d0381836139db565b9450505050509184611c08565b608460405160e560020a62461bcd02815260206004820152602360248201527f4f6e6c792074686520667265656c616e6365722063616e2073656e642064726160448201527f66747300000000000000000000000000000000000000000000000000000000006064820152fd5b346102185761016051366003190112610218576020600160a060020a03610160515416604051908152f35b602036600319011261021857600435806101605152600560205260406101605120906001820190600160a060020a03825416611f9c811515614157565b600384019360ff8554166003811015610c88576121a457600160a060020a036101605154169054906040519160e360020a631e1e7e5902835260048301528160248161016051935afa918215610d1757610160519283928391612170575b50600160a060020a031691823303612103576002811015610c88576001036120bc5760405191610649908184019084821067ffffffffffffffff8311176105ed5760409385936145cf853982526020820152030191f0928315610d1757600160a060020a03610100816060956120917fac8064fea85b95641f19e230ba9da498102d474473fe4b103466cb224daf5e019886614210565b845460ff19166001179485905554604080519687529116602086015292041690820152a16101605180f35b606460405160e560020a62461bcd02815260206004820152601460248201527f50726f6a656374206d757374206265206f70656e0000000000000000000000006044820152fd5b608460405160e560020a62461bcd02815260206004820152602860248201527f4f6e6c792074686520656d706c6f7965722063616e206163636570742074686560448201527f20726571756573740000000000000000000000000000000000000000000000006064820152fd5b9050600160a060020a0393506121949192503d8061016051833e610d0381836139db565b9594509592509050939290611ffa565b606460405160e560020a62461bcd02815260206004820152601660248201527f52657175657374206973206e6f742070656e64696e67000000000000000000006044820152fd5b346102185761016051366003190112610218576020600a54604051908152f35b346102185760203660031901126102185761016051600a5460043560015b8281111561247e575061223b83613e23565b9261224960405194856139db565b808452612258601f1991613e23565b01610160515b818110612421575050610160519060015b83811115612345578460405180916020820160208352815180915260408301906020604081830286010193019161016051905b8282106122b157505050500390f35b919360019193955060208091603f1989820301855287519081518152828201518382015260408201516040820152600160a060020a036060830151166060820152600160a060020a03608083015116608082015260e08061232360a085015161010060a0860152610100850190613abc565b9360c081015160c08501520151151591015296019201920185949391926122a2565b806101605152600960205281600160406101605120015414612370575b61236b90613d3d565b61226f565b9161241961236b9184610160515260096020526040610160512060ff60076040519261239b846139be565b805484526001810154602085015260028101546040850152600160a060020a036003820154166060850152600160a060020a0360048201541660808501526123e560058201613b8b565b60a0850152600681015460c0850152015416151560e08201526124088289613e6d565b526124138188613e6d565b50613d3d565b929050612362565b602090604051612430816139be565b6101605181526101605183820152610160516040820152610160516060820152610160516080820152606060a08201526101605160c08201526101605160e08201528282880101520161225e565b8061016051526009602052816001604061016051200154146124a9575b6124a490613d3d565b612229565b926124b66124a491613d3d565b93905061249b565b346102185761016051366003190112610218576020600454604051908152f35b34610218576020366003190112610218576004356004546124fe81613e3b565b9061250881613e3b565b612511826141c6565b9061251b836141c6565b92612525816141c6565b610160519096815b8381106125945761255c886109ff8b6125868b6125788c61256a8d604051998a9960a08b5260a08b019061381e565b9089820360208b015261381e565b908782036040890152613ae1565b908582036060870152613ae1565b908382036080850152613ae1565b81610160515260036020528160016125b28360406101605120613c9a565b500154146125c3575b60010161252d565b91612667600191836101605152600360205261265260046125ea8760406101605120613c9a565b5080546125f7858f613e6d565b5285810154612606858c613e6d565b5261261360028201613b8b565b61261d858d613e6d565b52612628848c613e6d565b508b6126408561263a60038501613b8b565b92613e6d565b5261264b848d613e6d565b5001613b8b565b61265c828d613e6d565b52612413818c613e6d565b9290506125bb565b346102185760403660031901126102185760043560243567ffffffffffffffff8111610218576126a3903690600401613a6b565b9082610160515260076020526040610160512091600483019283549060ff8216612783577fbaaa1d8ac25adbe9d68fdf1013f60ea647f91e457fb4589976b74dbf9c14968f9460016127629360ff1916179055600160a060020a036002600183015492015416612714600254613d3d565b9081600255604051926127268461396d565b8284526020840152604083015261273e368587613a19565b60608301526101605160808301526101605152600160205260406101605120613f73565b6127796040519283926020845260208401916141a5565b0390a26101605180f35b606460405160e560020a62461bcd02815260206004820152602060248201527f526576696577207265717565737420616c72656164792070726f6365737365646044820152fd5b34610218576020366003190112610218576004358061016051526005602052604061016051206003600182019161280c600160a060020a038454161515614157565b019160ff8354166003811015610c885761286f57825460ff19166002179092555460408051928352600160a060020a039190911660208301527f490ad67e4c8b3b9c1d11dfcd7f02e155190b8f6feff3a9d9e9df3721f0f74e5791a16101605180f35b606460405160e560020a62461bcd02815260206004820152601960248201527f5265717565737420616c72656164792070726f636573736564000000000000006044820152fd5b346102185760203660031901126102185760043580610160515260056020526040610160512090600182016128f6600160a060020a038254161515614109565b60ff6003840154166003811015610c8857600103612b4857600160a060020a03610160515416928054936040519460e360020a631e1e7e5902865260048601528460248161016051935afa938415610d17576101605194612b23575b50600160a060020a03841693843303612ab657600160a060020a03611337927fcd73b9f83ea59931f0cf4e6f9100a040894905d20d9cc2b2010c38cbe453581a9660056129a0600e54613d3d565b80600e558354858954169086604051956129b9876139a2565b84875260208701928352604087018d8152606088019182526080880194855260a08801936001855260c08901964288526101605152600d6020526040610160512098518955516001890155516002880155511687600387019116881982541617905586806004870193511616871983541617825551151574ff00000000000000000000000000000000000000007401000000000000000000000000000000000000000083549202169074ff00000000000000000000000000000000000000001916179055519101555493541690604051948594859293600160a060020a038092969560609460808701988752602087015216604085015216910152565b608460405160e560020a62461bcd02815260206004820152602a60248201527f4f6e6c792074686520656d706c6f7965722063616e20636f6d706c657465207460448201527f68652070726f6a656374000000000000000000000000000000000000000000006064820152fd5b612b3b9194503d8061016051833e610d0381836139db565b9450505050509284612952565b606460405160e560020a62461bcd02815260206004820152601860248201527f52657175657374206d75737420626520616363657074656400000000000000006044820152fd5b346102185760603660031901126102185760043560243560443567ffffffffffffffff811161021857612bc6903690600401613a50565b9181151580612fdb575b15612f9457806101605152600560205260406101605120926001840193612c02600160a060020a038654161515614109565b600160a060020a036101605154169054906040519160e360020a631e1e7e5902835260048301528160248161016051935afa8015610d1757600160a060020a03916101605191612f71575b50163303612f0457612c60600c54613d3d565b9081600c55600160a060020a0385541692600160a060020a0360405194612c86866139a2565b84865260208601928352816040870133815260608801928352608088019489865260a0890196875260c08901974289526101605152600b602052604061016051209851895551600189015551168260028801911683198254161790555116600160a060020a03600386019116600160a060020a031982541617905551600484015560058301905180519067ffffffffffffffff82116105ed57612d298354613b4d565b601f8111612ea4575b506020906001601f841114612e30578280600696959493612d68936101605192612e255750509060080260020a60001904191690565b906002021790555b51910155600160a060020a038254166101605152600f6020526040610160512091600c5491835492680100000000000000008410156105ed57612ddc847f53d9cb24b2b38bed8a18abd27b61fce9a966d0215f185ff66f427cfe4f8217b0966001608097018155613c69565b600882939254910260020a918261016051039283910216911916179055600160a060020a03600c5492541660405192835233602084015260408301526060820152a16101605180f35b015190508a80610419565b601f1983169184610160515280610160512092610160515b818110612e8c5750926002928592600698979660019610612e70575b50505002019055612d70565b01516008601f84160260020a6000190419169055898080612e64565b91936020600181928787015181550195019201612e48565b82811115612d3257836101605152602061016051206020601f8501049060208510612ef9575b601f82602092019301040390610160515b828110612ee9575050612d32565b6101605182820155600101612edb565b610160519150612eca565b608460405160e560020a62461bcd02815260206004820152602960248201527f4f6e6c792074686520656d706c6f7965722063616e207261746520746865206660448201527f7265656c616e63657200000000000000000000000000000000000000000000006064820152fd5b612f8891503d8061016051833e610d0381836139db565b94505050505086612c4d565b606460405160e560020a62461bcd02815260206004820152601e60248201527f526174696e67206d757374206265206265747765656e203120616e64203500006044820152fd5b506005821115612bd0565b612fef36613957565b81610160515260076020526040610160512061010052600461010051019081549060ff821661358d57600161010051015492600160a060020a0361016051541692604051937f42c549c00000000000000000000000000000000000000000000000000000000085528360048601528460248161016051935afa948515610d1757610160516101e081905295869586928392839283929161339a575b5061016051998a805b825181101561338857836130a78285613e6d565b51146130b557600101613093565b95946130f59798999a9b9c508693506130ee92508391506130e8826130e8966130e88260019d6130e8826101e051613e6d565b50613e6d565b5199613e6d565b505b156133415760019060ff19161790556002610100510192600160a060020a0384541691600160a060020a036101605154166040517f3a766ddf000000000000000000000000000000000000000000000000000000008152846004820152602081602481855afa908115610d1757610160519161330f575b508560050290600582048703610b0557606461318b920490613f66565b6101f48111613306575b813b1561021857604051947f063dca0c0000000000000000000000000000000000000000000000000000000086526004860152602485015283604481610160519361016051905af1918215610d1757600160a060020a03936131fc936132f3575b50614475565b16803b1561021857604051917fcd0c15bf000000000000000000000000000000000000000000000000000000008352600483015281602481610160519361016051905af18015610d17576132d8575b6132d182600160a060020a03600161010051015491541661326d600254613d3d565b90816002556040519261327f8461396d565b828452602084015260408301526101605150610160515061016051506040516132a96020826139db565b6101605181526060830152600160808301526101605152600160205260406101605120613f73565b6101605180f35b610160516132e5916139db565b61016051610218578161324b565b61016051613300916139db565b866131f6565b506101f4613195565b90506020813d602011613339575b8161332a602093836139db565b8101031261021857518761316e565b3d915061331d565b606460405160e560020a62461bcd02815260206004820152601860248201527f4d696c6573746f6e6520646f6573206e6f7420657869737400000000000000006044820152fd5b509a96979899505050505050506130f7565b99509750505050503d8061016051873e6133b481876139db565b61010086828101031261021857855167ffffffffffffffff8111610218576133e190828801908801613e8c565b94602087015167ffffffffffffffff81116102185761340590838901908901613e8c565b50604087015167ffffffffffffffff81116102185761342990838901908901613ee8565b96606081015167ffffffffffffffff81116102185761344d90848301908301613ee8565b92608082015167ffffffffffffffff81116102185761347190828401908401613e8c565b9360a083015167ffffffffffffffff81116102185761349590838501908501613e8c565b9160c084015167ffffffffffffffff811161021857840161018052808401601f610180510112156102185761018051516101c0526134d56101c051613e23565b936134e360405195866139db565b846101a0526101c0518552602085016101a0526020806101c051026101805101016101405281810161014051116102185760206101805101610120525b61014051610120511061355f5760e081015167ffffffffffffffff81116102185761354e9282019101613ee8565b98996101e05293909197928b61308a565b61012051518015158103610218576101a0515260206101a051016101a0526020610120510161012052613520565b606460405160e560020a62461bcd02815260206004820152601f60248201527f526576696577207265717565737420616c7265616479206163636570746564006044820152fd5b34610218576101605136600319011261021857610160516006548154909190600160a060020a031660015b83811115613782575061361182613e3b565b9061361b83613e3b565b9261362581613e3b565b61362e82613e3b565b9061364161363b84613e3b565b93613e3b565b93610160519060015b89811115613668575050506109ff94959650604051968796876138b5565b806101605152600560205260406101605120546040519060e360020a631e1e7e5902825260048201526101605181602481865afa908115610d175789918b91610160519161375f575b50600160a060020a031633146136d2575b50506136cd90613d3d565b61364a565b93600160a060020a0361010060036137559486986136cd976101605152600560205289613706876040610160512094613e6d565b5261371386835492613e6d565b5283600182015416613725868c613e6d565b526002810154613735868d613e6d565b52015461374960ff8216611029868e613e6d565b0416611037828b613e6d565b92905087896136c2565b61377691503d8061016051833e610d0381836139db565b9450505050508d6136b1565b806101605152600560205260406101605120546040519060e360020a631e1e7e5902825260048201526101605181602481865afa908115610d175761016051916137fb575b50600160a060020a031633146137e6575b6137e190613d3d565b6135ff565b916137f36137e191613d3d565b9290506137d8565b61381291503d8061016051833e610d0381836139db565b945050505050856137c7565b906020808351928381520192019060005b81811061383c5750505090565b825184526020938401939092019160010161382f565b906020808351928381520192019060005b8181106138705750505090565b8251600160a060020a0316845260209384019390920191600101613863565b90600382101561389c5752565b60e060020a634e487b7102600052602160045260246000fd5b96959391926138e4613900946138d66138f29460c08c5260c08c019061381e565b908a820360208c015261381e565b9088820360408a0152613852565b90868203606088015261381e565b9380850360808201526020808451968781520193016000955b80871061393857505061393593945060a0818403910152613852565b90565b90936020808261394b600194895161388f565b01950196019590613919565b6040906003190112610def576004359060243590565b60a0810190811067ffffffffffffffff82111761398957604052565b60e060020a634e487b7102600052604160045260246000fd5b60e0810190811067ffffffffffffffff82111761398957604052565b610100810190811067ffffffffffffffff82111761398957604052565b90601f8019910116810190811067ffffffffffffffff82111761398957604052565b67ffffffffffffffff811161398957601f01601f191660200190565b929192613a25826139fd565b91613a3360405193846139db565b829481845281830111610def578281602093846000960137010152565b9080601f83011215610def5781602061393593359101613a19565b9181601f84011215610def5782359167ffffffffffffffff8311610def5760208381860195010111610def57565b60005b838110613aac5750506000910152565b8181015183820152602001613a9c565b90602091613ad581518092818552858086019101613a99565b601f01601f1916010190565b805180835260208181028401810193928101926000918101905b838310613b0a57505050505090565b9091929394602080613b28600193601f198682030187528951613abc565b97019301930191939290613afb565b60043590600160a060020a0382168203610def57565b9060016002830492168015613b81575b6020831014613b6857565b60e060020a634e487b7102600052602260045260246000fd5b91607f1691613b5d565b9060405191826000825492613b9f84613b4d565b8084529360018116908115613c0d5750600114613bc6575b50613bc4925003836139db565b565b90506000929192526020600020906000915b818310613bf1575050906020613bc49282010138613bb7565b6020919350806001915483858901015201910190918492613bd8565b905060209250613bc494915060ff1916828401521515810282010138613bb7565b9390608093613c6193600160a060020a03929897988752602087015216604085015260a0606085015260a0840190613abc565b931515910152565b8054821015613c815760005260206000200190600090565b60e060020a634e487b7102600052603260045260246000fd5b8054821015613c81576000526005602060002091020190600090565b939192613ce3613cff94613cd5613cf19460a0895260a089019061381e565b90878203602089015261381e565b908582036040870152613852565b908382036060850152613ae1565b9060808183039101526020808351928381520192019060005b818110613d255750505090565b82511515845260209384019390920191600101613d18565b6000198114613d4c5760010190565b60e060020a634e487b7102600052601160045260246000fd5b81601f82011215610def578051613d7b816139fd565b92613d8960405194856139db565b81845260208284010111610def576139359160208085019101613a99565b60c081830312610def57805192602082015167ffffffffffffffff8111610def5783613dd4918401613d65565b9260408301519067ffffffffffffffff8211610def57613df5918401613d65565b9160608101519160808201516002811015610def5760a090920151600160a060020a0381168103610def5790565b67ffffffffffffffff81116139895760208091020190565b90613e4582613e23565b613e5260405191826139db565b8281528092613e63601f1991613e23565b0190602036910137565b8051821015613c81576020809202010190565b600382101561389c5752565b9080601f83011215610def578151613ea381613e23565b92613eb160405194856139db565b8184526020808086019302820101928311610def57602001905b828210613ed85750505090565b8151815260209182019101613ecb565b9080601f83011215610def578151613eff81613e23565b92613f0d60405194856139db565b818452602080808601930282010191838311610def5760208201905b838210613f3857505050505090565b815167ffffffffffffffff8111610def57602091613f5b87848094880101613d65565b815201910190613f29565b91908201809211613d4c57565b908051825560208101516001830155600160a060020a03604082015116600160a060020a03600284019116600160a060020a031982541617905560038201606082015180519067ffffffffffffffff821161398957613fd28354613b4d565b601f81116140b3575b50602090601f831160011461403f57928261401581608095613bc49998956004986000926140345750509060080260020a60001904191690565b906002021790555b0151151591019060ff801983541691151516179055565b015190503880610419565b601f1983169184600052806000209260005b81811061409b575084613bc4989794600497946001946080986002951061407f575b5050500201905561401d565b01516008601f84160260020a6000190419169055388080614073565b91936020600181928787015181550195019201614051565b82811115613fdb578360005260206000206020601f8501049060208510614100575b601f8260209201930104039060005b8281106140f2575050613fdb565b6000828201556001016140e4565b600091506140d5565b1561411057565b606460405160e560020a62461bcd02815260206004820152601660248201527f5265717565737420646f6573206e6f74206578697374000000000000000000006044820152fd5b1561415e57565b606460405160e560020a62461bcd02815260206004820152601d60248201527f4e6f20726571756573742065786973747320666f7220746869732049440000006044820152fd5b908060209392818452848401376000828201840152601f01601f1916010190565b906141d082613e23565b6141dd60405191826139db565b82815280926141ee601f1991613e23565b019060005b8281106141ff57505050565b8060606020809385010152016141f3565b9074ffffffffffffffffffffffffffffffffffffffff00610100600160a060020a038454931602169074ffffffffffffffffffffffffffffffffffffffff001916179055565b600282101561389c5752565b60405161426e816139a2565b6000815260006020820152600060408201526000606082015260006080820152600060a0820152600060c082015250600190600e54915b828111156142f457606460405160e560020a62461bcd02815260206004820152601c60248201527f50726f6a65637420636f6d706c6574696f6e206e6f7420666f756e64000000006044820152fd5b80600052600d602052816001604060002001541461431a5761431590613d3d565b6142a5565b915050600052600d6020526040600020600560405191614339836139a2565b805483526001810154602084015260028101546040840152600160a060020a03600382015416606084015260ff740100000000000000000000000000000000000000006004830154600160a060020a03811660808701520416151560a0840152015460c082015290565b600160a060020a0316600052600f60205260406000206040518082602082945493848152019060005260206000209260005b81811061445c5750506143ea925003826139db565b80511561445657600090815b815183101561442f5761442760019161440f8585613e6d565b51600052600b60205260046040600020015490613f66565b9201916143f6565b91505190811561443d570490565b60e060020a634e487b7102600052601260045260246000fd5b50600090565b84548352600194850194869450602090930192016143d5565b6000526007602052604060002090815415614587576006549160005b83811061450557608460405160e560020a62461bcd02815260206004820152603160248201527f4e6f206d61746368696e67207265717565737420666f756e6420666f7220746860448201527f69732072657669657720726571756573740000000000000000000000000000006064820152fd5b80600052600560205260406000208381541480614564575b8061454a575b6145305750600101614491565b600301546101009004600160a060020a0316949350505050565b5060ff600382015416600381101561389c57600114614523565b50600160a060020a03600182015416600160a060020a036002850154161461451d565b606460405160e560020a62461bcd02815260206004820152601d60248201527f526576696577207265717565737420646f6573206e6f742065786973740000006044820152fdfe608061064980380390601f19601f83011683019183831067ffffffffffffffff841117608b5780849260409485528339810103126086576047602060418360ba565b920160ba565b60008054600160a060020a03938416600160a060020a031991821617909155600180549290931691161790553460025560405161057b90816100ce8239f35b600080fd5b7f4e487b7100000000000000000000000000000000000000000000000000000000600052604160045260246000fd5b5190600160a060020a038216820360865756fe6080604052600436101561001257600080fd5b7c010000000000000000000000000000000000000000000000000000000060003504806345ad1a2e1461039e578063590e1ae3146102a757806369d8957514610243578063a37dda2c1461021c578063aa8c217c146101fe578063ae200e79146101d75763cd0c15bf1461008557600080fd5b346101d25760203660031901126101d257600254600435811561018b57808202908282040361015c57606490049081116100ef57600080808093600160a060020a038254168282156100e6575bf1156100da57005b6040513d6000823e3d90fd5b506108fc6100d2565b608460405160e560020a62461bcd02815260206004820152602860248201527f4d696c6573746f6e65207061796d656e74206578636565647320657363726f7760448201527f2062616c616e63650000000000000000000000000000000000000000000000006064820152fd5b7f4e487b7100000000000000000000000000000000000000000000000000000000600052601160045260246000fd5b606460405160e560020a62461bcd02815260206004820152601c60248201527f496e73756666696369656e742066756e647320696e20657363726f77000000006044820152fd5b600080fd5b346101d25760003660031901126101d2576020600160a060020a0360015416604051908152f35b346101d25760003660031901126101d2576020600254604051908152f35b346101d25760003660031901126101d2576020600160a060020a0360005416604051908152f35b346101d25760003660031901126101d25761026a600160a060020a03600154163314610483565b6000808080600254801561027e81156104f7565b600160a060020a0383541690839061029e575bf1156100da576000600255005b506108fc610291565b346101d25760003660031901126101d257600160a060020a0360005416803303610331576002549081156102ea576000808093819382f1156100da576000600255005b606460405160e560020a62461bcd02815260206004820152601260248201527f4e6f2066756e647320746f20726566756e6400000000000000000000000000006044820152fd5b608460405160e560020a62461bcd02815260206004820152602860248201527f4f6e6c792074686520667265656c616e6365722063616e20726571756573742060448201527f6120726566756e640000000000000000000000000000000000000000000000006064820152fd5b346101d25760203660031901126101d2576004356103c8600160a060020a03600154163314610483565b6002546103d68115156104f7565b811161041657600080808084600160a060020a0382541682821561040d575bf1156100da5760025490810390811161015c57600255005b506108fc6103f5565b608460405160e560020a62461bcd02815260206004820152602560248201527f5265647563656420616d6f756e74206578636565647320657363726f7720626160448201527f6c616e63650000000000000000000000000000000000000000000000000000006064820152fd5b1561048a57565b608460405160e560020a62461bcd02815260206004820152602360248201527f4f6e6c792074686520656d706c6f7965722063616e2072656c6561736520667560448201527f6e647300000000000000000000000000000000000000000000000000000000006064820152fd5b156104fe57565b606460405160e560020a62461bcd02815260206004820152601360248201527f4e6f2066756e647320746f2072656c65617365000000000000000000000000006044820152fdfea2646970667358221220c26b44fa1e8f3c4b5e43002c650cecccd467e8f0963b0446efe422f1244bfce264736f6c63430008220033a264697066735822122058421ff389265f656c3558b572fa613951e8f64e487b062f16015281579e4fd264736f6c63430008220033",
  "immutableReferences": {},
  "source": "// SPDX-License-Identifier: MIT\r\npragma solidity ^0.8.0;\r\n\r\nimport \"./Projects.sol\";\r\n\r\ncontract Escrow {\r\n    address public freelancer;\r\n    address public employer;\r\n    uint public amount;\r\n\r\n    constructor(address _freelancer, address _employer) payable {\r\n        freelancer = _freelancer;\r\n        employer = _employer;\r\n        amount = msg.value; // Set the amount to the value sent during the contract creation\r\n    }\r\n\r\n    function releaseFunds() external {\r\n        require(msg.sender == employer, \"Only the employer can release funds\");\r\n        require(amount > 0, \"No funds to release\");\r\n        payable(freelancer).transfer(amount);\r\n        amount = 0; // Set amount to 0 after release\r\n    }\r\n\r\n    function refund() external {\r\n        require(msg.sender == freelancer, \"Only the freelancer can request a refund\");\r\n        require(amount > 0, \"No funds to refund\");\r\n        payable(freelancer).transfer(amount);\r\n        amount = 0; // Set amount to 0 after refund\r\n    }\r\n\r\n    function releaseReducedFunds(uint _reducedAmount) external {\r\n        require(msg.sender == employer, \"Only the employer can release funds\");\r\n        require(amount > 0, \"No funds to release\");\r\n        require(_reducedAmount <= amount, \"Reduced amount exceeds escrow balance\");\r\n\r\n        payable(freelancer).transfer(_reducedAmount);\r\n        amount -= _reducedAmount; // Deduct the paid amount from the total escrow balance\r\n    }\r\n\r\n    function releaseMilestonePayment(uint milestonePercentage) external {\r\n        require(amount > 0, \"Insufficient funds in escrow\");\r\n\r\n        uint milestonePayment = (amount * milestonePercentage) / 100;\r\n        require(milestonePayment <= amount, \"Milestone payment exceeds escrow balance\");\r\n\r\n        payable(freelancer).transfer(milestonePayment);\r\n        // amount -= milestonePayment;\r\n    }\r\n}\r\n\r\ncontract RequestManager {\r\n    Projects public projectsContract;\r\n\r\n    enum RequestStatus { Pending, Accepted, Rejected }\r\n\r\n    struct Request {\r\n        uint projectId;\r\n        address freelancer;\r\n        uint freelancerRating;\r\n        RequestStatus status;\r\n        Escrow escrowContract;\r\n    }\r\n\r\n    struct MilestoneReviewRequest {\r\n        uint id;\r\n        uint milestoneId;\r\n        address freelancer;\r\n        string cid;\r\n        bool reviewed;\r\n    }\r\n\r\n    struct File {\r\n        uint id;\r\n        uint milestoneId;\r\n        string name;\r\n        string rid;\r\n        string cid;\r\n    }\r\n\r\n    struct ReviewResponse{\r\n        uint id;\r\n        uint milestoneId;\r\n        address freelancer;\r\n        string response;\r\n        bool accepted;\r\n    }\r\n    \r\n    struct RequestDraft {\r\n        uint id;\r\n        uint requestId;\r\n        uint projectId;\r\n        address freelancer;\r\n        address employer;\r\n        string draftContent; // Could be description or proposal\r\n        uint timestamp;\r\n        bool reviewed;\r\n    }\r\n    \r\n    struct FreelancerRating {\r\n        uint ratingId;\r\n        uint requestId;\r\n        address rater; // employer\r\n        address freelancer;\r\n        uint rating; // 1-5 stars\r\n        string review;\r\n        uint timestamp;\r\n    }\r\n    \r\n    struct ProjectCompletion {\r\n        uint completionId;\r\n        uint projectId;\r\n        uint requestId;\r\n        address employer;\r\n        address freelancer;\r\n        bool isCompleted;\r\n        uint completionTime;\r\n    }\r\n    \r\n    mapping(uint => ReviewResponse) public reviewResponses;\r\n    uint public responseCount;\r\n\r\n    // Mapping milestone ID to an array of files\r\n    mapping(uint => File[]) public milestoneFiles;\r\n    uint public fileCount;\r\n\r\n    // Store all requests in a single mapping\r\n    mapping(uint => Request) public requests;\r\n    uint public requestCount; // To keep track of the total number of requests\r\n\r\n    mapping(uint => MilestoneReviewRequest) public milestoneReviewRequests;\r\n    uint public milestoneReviewRequestCount;\r\n\r\n    // New mappings for additional features\r\n    mapping(uint => RequestDraft) public requestDrafts;\r\n    uint public requestDraftCount;\r\n    \r\n    mapping(uint => FreelancerRating) public freelancerRatings;\r\n    uint public freelancerRatingCount;\r\n    \r\n    mapping(uint => ProjectCompletion) public projectCompletions;\r\n    uint public projectCompletionCount;\r\n    \r\n    mapping(address => uint[]) public freelancerRatingsList; // Track ratings per freelancer\r\n\r\n    event RequestSent(uint requestId, uint projectId, address freelancer);\r\n    event RequestAccepted(uint requestId, address freelancer, address escrowContract);\r\n    event RequestRejected(uint requestId, address freelancer);\r\n    event MilestoneReviewRequestSent(uint requestId, uint milestoneId, string cid);\r\n    event MilestoneAccepted(uint projectId, uint milestoneId, uint updatedRating);\r\n    event MilestoneReviewRequestRejected(uint indexed reviewRequestId, string reason);\r\n    event RejectionReasonAccepted(uint _reviewRequestId);\r\n    event RequestDraftSent(uint draftId, uint requestId, address freelancer, address employer);\r\n    event FreelancerRatingSubmitted(uint ratingId, address rater, address freelancer, uint rating);\r\n    event ProjectCompleted(uint projectId, uint requestId, address employer, address freelancer);\r\n\r\n    constructor(address _projectsContract) {\r\n        projectsContract = Projects(_projectsContract);\r\n    }\r\n\r\n    function sendRequest(uint _projectId, uint _freelancerRating) public {\r\n        require(_projectId > 0 && _projectId <= projectsContract.projectCount(), \"Invalid project ID\");\r\n        (,, , , Projects.Status status, ) = projectsContract.getProject(_projectId);\r\n        require(status == Projects.Status.Open, \"Project is not open\");\r\n\r\n        // Create a new request\r\n        requestCount++; // Increment request count to create a unique ID\r\n        requests[requestCount] = Request({\r\n            projectId: _projectId,\r\n            freelancer: msg.sender,\r\n            freelancerRating: _freelancerRating,\r\n            status: RequestStatus.Pending,\r\n            escrowContract: Escrow(address(0))\r\n        });\r\n\r\n        emit RequestSent(requestCount, _projectId, msg.sender);\r\n    }\r\n\r\n    function acceptRequest(uint _requestId) public payable {\r\n        Request storage request = requests[_requestId];\r\n        require(request.freelancer != address(0), \"No request exists for this ID\");\r\n        require(request.status == RequestStatus.Pending, \"Request is not pending\");\r\n\r\n        // Fetch project details\r\n        (,, , uint projectReward, Projects.Status status, address employer) = projectsContract.getProject(request.projectId);\r\n        require(msg.sender == employer, \"Only the employer can accept the request\");\r\n        require(status == Projects.Status.Open, \"Project must be open\");\r\n\r\n        // Create new escrow contract instance with freelancer and employer details\r\n        request.escrowContract = new Escrow{value: projectReward}(request.freelancer, employer);\r\n\r\n        request.status = RequestStatus.Accepted;\r\n        emit RequestAccepted(_requestId, request.freelancer, address(request.escrowContract));\r\n    }\r\n\r\n    function rejectRequest(uint _requestId) public {\r\n        Request storage request = requests[_requestId];\r\n        require(request.freelancer != address(0), \"No request exists for this ID\");\r\n        require(request.status == RequestStatus.Pending, \"Request already processed\");\r\n\r\n        request.status = RequestStatus.Rejected;\r\n        emit RequestRejected(_requestId, request.freelancer);\r\n    }\r\n\r\n    \r\n\r\n    function getRequest(uint _requestId) public view returns (Request memory) {\r\n        require(requests[_requestId].freelancer != address(0), \"No request exists for this ID\");\r\n        return requests[_requestId];\r\n    }\r\n\r\n    // New function to view all requests\r\n    function viewAllRequests() public view returns (\r\n        uint[] memory requestIds,\r\n        uint[] memory projectIds,\r\n        address[] memory freelancers,\r\n        uint[] memory freelancerRatings,\r\n        RequestStatus[] memory statuses,\r\n        address[] memory escrowContracts\r\n    ) {\r\n        uint count = requestCount;\r\n\r\n        // Initialize arrays based on the total request count\r\n        requestIds = new uint[](count);\r\n        projectIds = new uint[](count);\r\n        freelancers = new address[](count);\r\n        freelancerRatings = new uint[](count);\r\n        statuses = new RequestStatus[](count);\r\n        escrowContracts = new address[](count);\r\n\r\n        // Populate the arrays with request details\r\n        for (uint i = 1; i <= requestCount; i++) {\r\n            Request storage request = requests[i];\r\n            requestIds[i - 1] = i;\r\n            projectIds[i - 1] = request.projectId;\r\n            freelancers[i - 1] = request.freelancer;\r\n            freelancerRatings[i - 1] = request.freelancerRating;\r\n            statuses[i - 1] = request.status;\r\n            escrowContracts[i - 1] = address(request.escrowContract);\r\n        }\r\n\r\n        return (requestIds, projectIds, freelancers, freelancerRatings, statuses, escrowContracts);\r\n    }\r\n\r\n\r\n    function viewAllReviewResponses() public view returns (\r\n        uint[] memory responseIds,\r\n        uint[] memory milestoneIds,\r\n        address[] memory freelancers,\r\n        string[] memory responses,\r\n        bool[] memory acceptedStatuses\r\n    ) {\r\n        uint count = responseCount;\r\n\r\n        // Initialize arrays based on the total response count\r\n        responseIds = new uint[](count);\r\n        milestoneIds = new uint[](count);\r\n        freelancers = new address[](count);\r\n        responses = new string[](count);\r\n        acceptedStatuses = new bool[](count);\r\n\r\n        // Populate the arrays with response details\r\n        for (uint i = 1; i <= count; i++) {\r\n            ReviewResponse storage reviewResponse = reviewResponses[i];\r\n            responseIds[i - 1] = reviewResponse.id;\r\n            milestoneIds[i - 1] = reviewResponse.milestoneId;\r\n            freelancers[i - 1] = reviewResponse.freelancer;\r\n            responses[i - 1] = reviewResponse.response;\r\n            acceptedStatuses[i - 1] = reviewResponse.accepted;\r\n        }\r\n\r\n        return (responseIds, milestoneIds, freelancers, responses, acceptedStatuses);\r\n    }\r\n\r\n\r\n    // function acceptMilestone(uint _milestoneId, uint _actualDaysTaken, uint _delayPenalty, uint _requestId) public payable {\r\n    //     Request memory request = getRequest(_requestId); // Retrieve the request using requestId\r\n\r\n    //     // Ensure projectId is valid\r\n    //     require(request.projectId > 0 && request.projectId <= projectsContract.projectCount(), \"Project does not exist\");\r\n\r\n    //     // Retrieve the project details using the getProject function\r\n    //     (, , , uint reward, , address employer) = projectsContract.getProject(request.projectId);\r\n    //     require(msg.sender == employer, \"Only the employer can accept milestones\");\r\n\r\n    //     // Ensure milestoneId is valid\r\n    //     (\r\n    //         uint[] memory ids,\r\n    //         uint[] memory projectIds,\r\n    //         string[] memory names,\r\n    //         string[] memory descriptions,\r\n    //         uint[] memory daycounts,\r\n    //         uint[] memory percentages,\r\n    //         bool[] memory completions,\r\n    //         string[] memory proofFileHashes\r\n    //     ) = projectsContract.getMilestones(request.projectId);\r\n\r\n    //     // Check if the milestone exists and is within bounds\r\n    //     require(_milestoneId > 0 && _milestoneId <= ids.length, \"Milestone does not exist\");\r\n        \r\n    //     // Fetch milestone data by using _milestoneId as an index\r\n    //     uint milestoneIndex = _milestoneId - 1;\r\n    //     require(!completions[milestoneIndex], \"Milestone already completed\");\r\n    //     require(bytes(proofFileHashes[milestoneIndex]).length > 0, \"Proof file not uploaded\");\r\n\r\n    //     // Mark the milestone as completed\r\n    //     projectsContract.completeMilestone(request.projectId, _milestoneId);\r\n\r\n    //     // Calculate and update freelancer rating based on the provided formula\r\n    //     uint currentRating = projectsContract.getFreelancerRating(request.freelancer);\r\n    //     uint rewardWeight = (percentages[milestoneIndex] * reward) / 100;\r\n    //     int ratingChange = int((5 * 100 * rewardWeight * daycounts[milestoneIndex]) / (reward * _actualDaysTaken));\r\n\r\n    //     // Cap the increment at +0.2 if positive\r\n    //     if (ratingChange > 20) {\r\n    //         ratingChange = 20;\r\n    //     }\r\n\r\n    //     uint newRating = uint(int(currentRating) + ratingChange);\r\n\r\n    //     // Ensure new rating doesn't exceed 5.0 (500 basis points)\r\n    //     if (newRating > 500) {\r\n    //         newRating = 500;\r\n    //     }\r\n\r\n    //     // Update the freelancer's rating\r\n    //     projectsContract.setFreelancerRating(request.freelancer, newRating);\r\n\r\n    //     // Release milestone payment from the escrow with the specified penalty\r\n    //     uint milestonePercentage = percentages[milestoneIndex];\r\n    //     request.escrowContract.releaseMilestonePayment(milestonePercentage, _delayPenalty);\r\n\r\n    //     emit MilestoneAccepted(request.projectId, _milestoneId, newRating);\r\n    // }\r\n\r\n\r\n    function viewRequestsByEmployer() public view returns (\r\n            uint[] memory requestIds,\r\n            uint[] memory projectIds,\r\n            address[] memory freelancers,\r\n            uint[] memory freelancerRatings,\r\n            RequestStatus[] memory statuses,\r\n            address[] memory escrowContracts\r\n        ) {\r\n            uint count = 0;\r\n\r\n            // Count requests that belong to projects owned by the employer\r\n            for (uint i = 1; i <= requestCount; i++) {\r\n                uint projectId = requests[i].projectId;\r\n                (, , , , , address employer) = projectsContract.getProject(projectId);\r\n                if (employer == msg.sender) {\r\n                    count++;\r\n                }\r\n            }\r\n\r\n            // Initialize arrays based on the count of matching requests\r\n            requestIds = new uint[](count);\r\n            projectIds = new uint[](count);\r\n            freelancers = new address[](count);\r\n            freelancerRatings = new uint[](count);\r\n            statuses = new RequestStatus[](count);\r\n            escrowContracts = new address[](count);\r\n\r\n            uint index = 0;\r\n\r\n            // Populate the arrays with matching request details\r\n            for (uint i = 1; i <= requestCount; i++) {\r\n                uint projectId = requests[i].projectId;\r\n                (, , , , , address employer) = projectsContract.getProject(projectId);\r\n                if (employer == msg.sender) {\r\n                    Request storage request = requests[i];\r\n                    requestIds[index] = i;\r\n                    projectIds[index] = request.projectId;\r\n                    freelancers[index] = request.freelancer;\r\n                    freelancerRatings[index] = request.freelancerRating;\r\n                    statuses[index] = request.status;\r\n                    escrowContracts[index] = address(request.escrowContract);\r\n                    index++;\r\n                }\r\n            }\r\n\r\n            return (requestIds, projectIds, freelancers, freelancerRatings, statuses, escrowContracts);\r\n    }\r\n\r\n    function sendMilestoneReviewRequest(uint _milestoneId, string calldata _cid, address _freelancer) public {\r\n        // Create a new milestone review request\r\n        milestoneReviewRequestCount++; // Increment count for unique ID\r\n        milestoneReviewRequests[milestoneReviewRequestCount] = MilestoneReviewRequest({\r\n            id: milestoneReviewRequestCount,\r\n            milestoneId: _milestoneId,\r\n            freelancer: _freelancer,\r\n            cid: _cid,\r\n            reviewed: false // Initially, the request is not reviewed\r\n        });\r\n\r\n        emit MilestoneReviewRequestSent(milestoneReviewRequestCount, _milestoneId, _cid); // Emit event\r\n    }\r\n\r\n    function viewAllMilestoneReviewRequests() public view returns (\r\n        uint[] memory requestIds,\r\n        uint[] memory milestoneIds,\r\n        address[] memory freelancers,\r\n        string[] memory cids,\r\n        bool[] memory reviewedStatuses\r\n    ) {\r\n        uint count = milestoneReviewRequestCount;\r\n\r\n        // Initialize arrays based on the total count of review requests\r\n        requestIds = new uint[](count);\r\n        milestoneIds = new uint[](count);\r\n        freelancers = new address[](count);\r\n        cids = new string[](count);\r\n        reviewedStatuses = new bool[](count);\r\n\r\n        // Populate the arrays with review request details\r\n        for (uint i = 1; i <= milestoneReviewRequestCount; i++) {\r\n            MilestoneReviewRequest storage reviewRequest = milestoneReviewRequests[i];\r\n            requestIds[i - 1] = reviewRequest.id;\r\n            milestoneIds[i - 1] = reviewRequest.milestoneId;\r\n            freelancers[i - 1] = reviewRequest.freelancer;\r\n            cids[i - 1] = reviewRequest.cid;\r\n            reviewedStatuses[i - 1] = reviewRequest.reviewed;\r\n        }\r\n\r\n        return (requestIds, milestoneIds, freelancers, cids, reviewedStatuses);\r\n    }\r\n\r\n\r\n    function getEscrowAccountFromReviewRequest(uint _reviewRequestId, uint _projectId) public view returns (Escrow) {\r\n        // Fetch the MilestoneReviewRequest using the provided ID\r\n        MilestoneReviewRequest storage reviewRequest = milestoneReviewRequests[_reviewRequestId];\r\n\r\n        // Ensure the review request exists\r\n        require(reviewRequest.id != 0, \"Review request does not exist\");\r\n        \r\n        // Find the corresponding request based on the project ID and freelancer address\r\n        for (uint i = 0; i < requestCount; i++) {\r\n            Request storage request = requests[i];\r\n\r\n            // Check if the request matches the provided projectId and the freelancer address from the review request\r\n            if (request.projectId == _projectId && request.freelancer == reviewRequest.freelancer && request.status == RequestStatus.Accepted) {\r\n                return request.escrowContract; // Return the escrow contract associated with the request\r\n            }\r\n        }\r\n\r\n        // If no matching request was found, revert with an error message\r\n        revert(\"No matching request found for this review request\");\r\n    }\r\n\r\n\r\n\r\n\r\n    function acceptMilestoneReviewRequest(uint _reviewRequestId, uint _projId) public payable {\r\n        // Fetch the  request using the ID\r\n        MilestoneReviewRequest storage reviewRequest = milestoneReviewRequests[_reviewRequestId];\r\n        require(!reviewRequest.reviewed, \"Review request already accepted\");\r\n\r\n        // Get the milestone ID from the  request\r\n        uint milestoneId = reviewRequest.milestoneId;\r\n\r\n        // Retrieve the associated milestones for the project\r\n        (\r\n            uint[] memory ids,\r\n            uint[] memory projectIds,\r\n            string[] memory names,\r\n            string[] memory descriptions,\r\n            uint[] memory daycounts,\r\n            uint[] memory percentages,\r\n            bool[] memory completions,\r\n            string[] memory proofFileHashes\r\n        ) = projectsContract.getMilestones(_projId);\r\n\r\n        // Initialize variables to store the milestone data once we find it\r\n        bool milestoneFound = false;\r\n        string memory milestoneName;\r\n        string memory milestoneDescription;\r\n        uint milestoneDaycount;\r\n        uint milestonePercentage;\r\n        bool milestoneCompleted;\r\n        string memory milestoneProofFileHash;\r\n\r\n        // Search for the milestone with the specified milestoneId\r\n        for (uint i = 0; i < ids.length; i++) {\r\n            if (ids[i] == milestoneId) {\r\n                milestoneFound = true;\r\n                milestoneName = names[i];\r\n                milestoneDescription = descriptions[i];\r\n                milestoneDaycount = daycounts[i];\r\n                milestonePercentage = percentages[i];\r\n                milestoneCompleted = completions[i];\r\n                milestoneProofFileHash = proofFileHashes[i];\r\n                break;\r\n            }\r\n        }\r\n\r\n        require(milestoneFound, \"Milestone does not exist\");\r\n\r\n        reviewRequest.reviewed = true;\r\n\r\n        // Get freelancer's address from the request\r\n        address freelancer = reviewRequest.freelancer;\r\n\r\n        // Update freelancer rating based on the milestone percentage\r\n        uint currentRating = projectsContract.getFreelancerRating(freelancer);\r\n        // uint rewardWeight = projReward / 100;\r\n        uint newRating = currentRating + (5 * milestonePercentage / 100);\r\n\r\n        // Ensure the new rating does not exceed 500\r\n        if (newRating > 500) {\r\n            newRating = 500;\r\n        }\r\n\r\n        // Set the new rating for the freelancer\r\n        projectsContract.setFreelancerRating(freelancer, newRating);\r\n\r\n\r\n        getEscrowAccountFromReviewRequest(_reviewRequestId, _projId).releaseMilestonePayment(milestonePercentage);\r\n\r\n\r\n        uint _milestoneId = reviewRequest.milestoneId;\r\n        address _freelancer = reviewRequest.freelancer;\r\n\r\n        responseCount++;\r\n        reviewResponses[responseCount] = ReviewResponse({\r\n            id: responseCount,\r\n            milestoneId: _milestoneId,\r\n            freelancer: _freelancer,\r\n            response: \"\",\r\n            accepted: true\r\n        });\r\n    }\r\n\r\n\r\n\r\n    // function acceptMilestoneReviewRequest(uint _reviewRequestId, uint _projId) public payable {\r\n    //     // Fetch the  request using the ID\r\n    //     MilestoneReviewRequest storage reviewRequest = milestoneReviewRequests[_reviewRequestId];\r\n    //     require(!reviewRequest.reviewed, \"Review request already accepted\");\r\n\r\n    //     // Get the milestone ID from the  request\r\n    //     uint milestoneId = reviewRequest.milestoneId;\r\n\r\n    //     // Retrieve the associated milestones for the project\r\n    //     (\r\n    //         uint[] memory ids,\r\n    //         uint[] memory projectIds,\r\n    //         string[] memory names,\r\n    //         string[] memory descriptions,\r\n    //         uint[] memory daycounts,\r\n    //         uint[] memory percentages,\r\n    //         bool[] memory completions,\r\n    //         string[] memory proofFileHashes\r\n    //     ) = projectsContract.getMilestones(_projId);\r\n\r\n    //     // Initialize variables to store the milestone data once we find it\r\n    //     bool milestoneFound = false;\r\n    //     string memory milestoneName;\r\n    //     string memory milestoneDescription;\r\n    //     uint milestoneDaycount;\r\n    //     uint milestonePercentage;\r\n    //     bool milestoneCompleted;\r\n    //     string memory milestoneProofFileHash;\r\n\r\n    //     // Search for the milestone with the specified milestoneId\r\n    //     for (uint i = 0; i < ids.length; i++) {\r\n    //         if (ids[i] == milestoneId) {\r\n    //             milestoneFound = true;\r\n    //             milestoneName = names[i];\r\n    //             milestoneDescription = descriptions[i];\r\n    //             milestoneDaycount = daycounts[i];\r\n    //             milestonePercentage = percentages[i];\r\n    //             milestoneCompleted = completions[i];\r\n    //             milestoneProofFileHash = proofFileHashes[i];\r\n    //             break;\r\n    //         }\r\n    //     }\r\n\r\n    //     require(milestoneFound, \"Milestone does not exist\");\r\n\r\n    //     // Use getProject to retrieve the project details\r\n    //     (\r\n    //         uint projId,\r\n    //         string memory projName,\r\n    //         string memory projDescription,\r\n    //         uint projReward,\r\n    //         Projects.Status projStatus,\r\n    //         address projEmployer\r\n    //     ) = projectsContract.getProject(_projId);\r\n\r\n    //     // Verify that the sender is the employer of the project\r\n    //     require(projEmployer == msg.sender, \"Only the employer can accept milestones\");\r\n\r\n    //     // Mark the review request as accepted\r\n    //     reviewRequest.reviewed = true;\r\n\r\n    //     // Get freelancer's address from the request\r\n    //     address freelancer = reviewRequest.freelancer;\r\n\r\n    //     // Update freelancer rating based on the milestone percentage\r\n    //     uint currentRating = projectsContract.getFreelancerRating(freelancer);\r\n    //     uint rewardWeight = projReward / 100;\r\n    //     uint newRating = currentRating + (5 * milestonePercentage / rewardWeight);\r\n\r\n    //     // Ensure the new rating does not exceed 500\r\n    //     if (newRating > 500) {\r\n    //         newRating = 500;\r\n    //     }\r\n\r\n    //     // Set the new rating for the freelancer\r\n    //     projectsContract.setFreelancerRating(freelancer, newRating);\r\n\r\n    //     // Find the request with the matching projectId and freelancer\r\n    //     uint requestIndex;\r\n    //     bool foundRequest = false;\r\n\r\n    //     for (uint i = 0; i < requestCount; i++) {\r\n    //         if (requests[i].projectId == _projId && requests[i].freelancer == freelancer && requests[i].status == RequestStatus.Accepted) {\r\n    //             requestIndex = i;\r\n    //             foundRequest = true;\r\n    //             break;\r\n    //         }\r\n    //     }\r\n    //     require(foundRequest, \"Associated request not found\");\r\n\r\n    //     // Release the milestone payment from escrow using the found request\r\n    //     requests[requestIndex].escrowContract.releaseMilestonePayment(milestonePercentage);\r\n\r\n    //     // Emit an event to record the milestone acceptance\r\n    //     emit MilestoneAccepted(projId, milestoneId, newRating);\r\n    // }\r\n\r\n    // function acceptMilestoneReviewRequest(uint _reviewRequestId, uint _projId) public payable {\r\n    //     // Fetch the request using the ID\r\n    //     MilestoneReviewRequest storage reviewRequest = milestoneReviewRequests[_reviewRequestId];\r\n    //     require(reviewRequest.id != 0, \"Review request does not exist\");\r\n    //     require(!reviewRequest.reviewed, \"Review request already accepted\");\r\n\r\n    //     // Get the milestone ID from the request\r\n    //     uint milestoneId = reviewRequest.milestoneId;\r\n\r\n    //     // Retrieve the associated milestones for the project\r\n    //     (\r\n    //         uint[] memory ids,\r\n    //         ,  // projectIds not used\r\n    //         ,  // names not used\r\n    //         ,  // descriptions not used\r\n    //         uint[] memory daycounts,\r\n    //         uint[] memory percentages,\r\n    //         bool[] memory completions,\r\n    //         string[] memory proofFileHashes\r\n    //     ) = projectsContract.getMilestones(_projId);\r\n\r\n    //     // Verify that the milestone exists and get its index\r\n    //     uint milestoneIndex;\r\n    //     bool milestoneFound = false;\r\n    //     for (uint i = 0; i < ids.length; i++) {\r\n    //         if (ids[i] == milestoneId) {\r\n    //             milestoneIndex = i;\r\n    //             milestoneFound = true;\r\n    //             break;\r\n    //         }\r\n    //     }\r\n    //     require(milestoneFound, \"Milestone does not exist\");\r\n    //     require(!completions[milestoneIndex], \"Milestone already completed\");\r\n    //     require(bytes(proofFileHashes[milestoneIndex]).length > 0, \"Proof file not uploaded\");\r\n\r\n    //     // Get project details\r\n    //     (, , , uint projReward, , address projEmployer) = projectsContract.getProject(_projId);\r\n    //     require(msg.sender == projEmployer, \"Only the employer can accept milestones\");\r\n\r\n    //     // Mark the milestone as completed in the Projects contract\r\n    //     projectsContract.completeMilestone(_projId, milestoneId);\r\n\r\n    //     // Mark the review request as accepted\r\n    //     reviewRequest.reviewed = true;\r\n\r\n    //     // Get freelancer's address from the request\r\n    //     address freelancer = reviewRequest.freelancer;\r\n\r\n    //     // Update freelancer rating\r\n    //     uint currentRating = projectsContract.getFreelancerRating(freelancer);\r\n    //     uint milestonePercentage = percentages[milestoneIndex];\r\n        \r\n    //     // Calculate rating increase based on milestone percentage and project reward\r\n    //     uint ratingIncrease = (5 * milestonePercentage * daycounts[milestoneIndex]) / 100;\r\n    //     uint newRating = currentRating + ratingIncrease;\r\n        \r\n    //     // Cap the rating at 500 (5.0)\r\n    //     if (newRating > 500) {\r\n    //         newRating = 500;\r\n    //     }\r\n\r\n    //     // Update the freelancer's rating\r\n    //     projectsContract.setFreelancerRating(freelancer, newRating);\r\n\r\n    //     // Find the associated request for the escrow\r\n    //     uint requestId;\r\n    //     bool foundRequest = false;\r\n    //     for (uint i = 1; i <= requestCount; i++) {\r\n    //         if (requests[i].projectId == _projId && \r\n    //             requests[i].freelancer == freelancer && \r\n    //             requests[i].status == RequestStatus.Accepted) {\r\n    //             requestId = i;\r\n    //             foundRequest = true;\r\n    //             break;\r\n    //         }\r\n    //     }\r\n    //     require(foundRequest, \"Associated request not found\");\r\n    //     require(address(requests[requestId].escrowContract) != address(0), \"Escrow contract not found\");\r\n\r\n    //     // Release the milestone payment from escrow\r\n    //     requests[requestId].escrowContract.releaseMilestonePayment(milestonePercentage);\r\n\r\n    //     // Emit event\r\n    //     emit MilestoneAccepted(_projId, milestoneId, newRating);\r\n    // }\r\n\r\n\r\n\r\n\r\n    function rejectMilestoneReviewRequest(uint _reviewRequestId, string calldata _reason)  public {\r\n        MilestoneReviewRequest storage reviewRequest = milestoneReviewRequests[_reviewRequestId];\r\n        require(!reviewRequest.reviewed, \"Review request already processed\");\r\n        reviewRequest.reviewed = true;\r\n\r\n        uint _milestoneId = reviewRequest.milestoneId;\r\n        address _freelancer = reviewRequest.freelancer;\r\n\r\n        responseCount++;\r\n        // request.escrowContract = new ReviewResponse{value: projectReward}(request.freelancer, employer);\r\n        reviewResponses[responseCount] = ReviewResponse({\r\n            id: responseCount,\r\n            milestoneId: _milestoneId,\r\n            freelancer: _freelancer,\r\n            response: _reason,\r\n            accepted: false\r\n        });\r\n\r\n        emit MilestoneReviewRequestRejected(_reviewRequestId, _reason);\r\n    }\r\n\r\n    function acceptRejectionReason(uint _reviewRequestId) public {\r\n        // Fetch the request using the ID\r\n        MilestoneReviewRequest storage reviewRequest = milestoneReviewRequests[_reviewRequestId];\r\n        \r\n        // Check if the request exists and if it is not already reviewed\r\n        require(reviewRequest.freelancer == msg.sender, \"Only the freelancer can accept the rejection reason\");\r\n        require(!reviewRequest.reviewed, \"Review request already reviewed\");\r\n\r\n        // Accept the rejection reason and mark the request as reviewed\r\n        reviewRequest.reviewed = true;\r\n\r\n        // Emit an event for this action (optional)\r\n        emit RejectionReasonAccepted(_reviewRequestId);\r\n    }\r\n\r\n\r\n    function viewAcceptedProjectsByFreelancer(address freelancer) public view returns (\r\n        uint[] memory ids, \r\n        string[] memory names, \r\n        string[] memory descriptions, \r\n        uint[] memory rewards, \r\n        Projects.Status[] memory statuses, // Change here to use Projects.Status\r\n        address[] memory employers\r\n    ) {\r\n        // Temporary storage for matched projects\r\n        uint[] memory tempIds = new uint[](requestCount); \r\n        string[] memory tempNames = new string[](requestCount);\r\n        string[] memory tempDescriptions = new string[](requestCount);\r\n        uint[] memory tempRewards = new uint[](requestCount);\r\n        Projects.Status[] memory tempStatuses = new Projects.Status[](requestCount); // Change here to use Projects.Status\r\n        address[] memory tempEmployers = new address[](requestCount);\r\n\r\n        uint matchCount = 0; // Count of matched projects\r\n\r\n        for (uint i = 1; i <= requestCount; i++) {\r\n            Request storage req = requests[i];\r\n            if (req.status == RequestStatus.Accepted && req.freelancer == freelancer) {\r\n                // Unpack the return values from getProject\r\n                (uint id, string memory name, string memory description, uint reward, Projects.Status status, address employer) = \r\n                    projectsContract.getProject(req.projectId); // Call the function\r\n                \r\n                // Assign the unpacked values to temporary storage\r\n                tempIds[matchCount] = id;\r\n                tempNames[matchCount] = name;\r\n                tempDescriptions[matchCount] = description;\r\n                tempRewards[matchCount] = reward;\r\n                tempStatuses[matchCount] = status;\r\n                tempEmployers[matchCount] = employer;\r\n                matchCount++;\r\n            }\r\n        }\r\n\r\n        // Create memory arrays of the exact size of matches found\r\n        ids = new uint[](matchCount);\r\n        names = new string[](matchCount);\r\n        descriptions = new string[](matchCount);\r\n        rewards = new uint[](matchCount);\r\n        statuses = new Projects.Status[](matchCount); // Change here to use Projects.Status\r\n        employers = new address[](matchCount);\r\n\r\n        for (uint j = 0; j < matchCount; j++) {\r\n            ids[j] = tempIds[j];\r\n            names[j] = tempNames[j];\r\n            descriptions[j] = tempDescriptions[j];\r\n            rewards[j] = tempRewards[j];\r\n            statuses[j] = tempStatuses[j];\r\n            employers[j] = tempEmployers[j];\r\n        }\r\n\r\n        return (ids, names, descriptions, rewards, statuses, employers);\r\n    }\r\n    \r\n\r\n    function addFile(\r\n        uint _milestoneId, \r\n        string memory _name, \r\n        string memory _rid, \r\n        string memory _cid\r\n    ) public {\r\n        // Create a new File struct with a unique ID and add it to the milestoneFiles map\r\n        File memory newFile = File({\r\n            id: fileCount, // unique global ID for each file\r\n            milestoneId: _milestoneId,\r\n            name: _name,\r\n            rid: _rid,\r\n            cid: _cid\r\n        });\r\n        \r\n        milestoneFiles[_milestoneId].push(newFile); // Add file to the array for the specific milestone\r\n        fileCount++; // Increment the global file count\r\n    }\r\n\r\n    function viewAllFilesForMilestone(uint _milestoneId) \r\n        public \r\n        view \r\n        returns (\r\n            uint[] memory ids,\r\n            uint[] memory milestoneIds,\r\n            string[] memory names,\r\n            string[] memory rids,\r\n            string[] memory cids\r\n        ) \r\n    {\r\n        uint count = fileCount; // Assuming 'fileCount' keeps track of the total files added\r\n\r\n        // Initialize arrays based on the total file count for the specified milestone\r\n        ids = new uint[](count);\r\n        milestoneIds = new uint[](count);\r\n        names = new string[](count);\r\n        rids = new string[](count);\r\n        cids = new string[](count);\r\n\r\n        // Populate the arrays with file details for the given milestone\r\n        uint index = 0;\r\n        for (uint i = 0; i < count; i++) {\r\n            if (milestoneFiles[_milestoneId][i].milestoneId == _milestoneId) {\r\n                File storage file = milestoneFiles[_milestoneId][i];\r\n                ids[index] = file.id;\r\n                milestoneIds[index] = file.milestoneId;\r\n                names[index] = file.name;\r\n                rids[index] = file.rid;\r\n                cids[index] = file.cid;\r\n                index++;\r\n            }\r\n        }\r\n\r\n        return (ids, milestoneIds, names, rids, cids);\r\n    }\r\n\r\n    // ===== NEW FUNCTIONS FOR ADDITIONAL FEATURES =====\r\n\r\n    /**\r\n     * Send a request draft from freelancer to employer (client)\r\n     */\r\n    function sendRequestDraft(uint _requestId, string memory _draftContent) public {\r\n        Request storage request = requests[_requestId];\r\n        require(request.freelancer != address(0), \"Request does not exist\");\r\n        require(request.freelancer == msg.sender, \"Only the freelancer can send drafts\");\r\n        \r\n        // Get employer address from project\r\n        (,, , , , address employer) = projectsContract.getProject(request.projectId);\r\n        \r\n        requestDraftCount++;\r\n        requestDrafts[requestDraftCount] = RequestDraft({\r\n            id: requestDraftCount,\r\n            requestId: _requestId,\r\n            projectId: request.projectId,\r\n            freelancer: msg.sender,\r\n            employer: employer,\r\n            draftContent: _draftContent,\r\n            timestamp: block.timestamp,\r\n            reviewed: false\r\n        });\r\n        \r\n        emit RequestDraftSent(requestDraftCount, _requestId, msg.sender, employer);\r\n    }\r\n\r\n    /**\r\n     * Get all request drafts for a specific request\r\n     */\r\n    function getRequestDrafts(uint _requestId) public view returns (RequestDraft[] memory) {\r\n        uint count = 0;\r\n        for (uint i = 1; i <= requestDraftCount; i++) {\r\n            if (requestDrafts[i].requestId == _requestId) {\r\n                count++;\r\n            }\r\n        }\r\n        \r\n        RequestDraft[] memory drafts = new RequestDraft[](count);\r\n        uint index = 0;\r\n        for (uint i = 1; i <= requestDraftCount; i++) {\r\n            if (requestDrafts[i].requestId == _requestId) {\r\n                drafts[index] = requestDrafts[i];\r\n                index++;\r\n            }\r\n        }\r\n        return drafts;\r\n    }\r\n\r\n    /**\r\n     * Allows employer (client) to rate freelancer\r\n     */\r\n    function rateFreelancer(uint _requestId, uint _rating, string memory _review) public {\r\n        require(_rating > 0 && _rating <= 5, \"Rating must be between 1 and 5\");\r\n        \r\n        Request storage request = requests[_requestId];\r\n        require(request.freelancer != address(0), \"Request does not exist\");\r\n        \r\n        // Get employer address from project\r\n        (,, , , , address employer) = projectsContract.getProject(request.projectId);\r\n        require(msg.sender == employer, \"Only the employer can rate the freelancer\");\r\n        \r\n        freelancerRatingCount++;\r\n        freelancerRatings[freelancerRatingCount] = FreelancerRating({\r\n            ratingId: freelancerRatingCount,\r\n            requestId: _requestId,\r\n            rater: msg.sender,\r\n            freelancer: request.freelancer,\r\n            rating: _rating,\r\n            review: _review,\r\n            timestamp: block.timestamp\r\n        });\r\n        \r\n        freelancerRatingsList[request.freelancer].push(freelancerRatingCount);\r\n        \r\n        emit FreelancerRatingSubmitted(freelancerRatingCount, msg.sender, request.freelancer, _rating);\r\n    }\r\n\r\n    /**\r\n     * Get all ratings for a specific freelancer\r\n     */\r\n    function getFreelancerRatings(address _freelancer) public view returns (FreelancerRating[] memory) {\r\n        uint[] memory ratingIds = freelancerRatingsList[_freelancer];\r\n        FreelancerRating[] memory ratings = new FreelancerRating[](ratingIds.length);\r\n        \r\n        for (uint i = 0; i < ratingIds.length; i++) {\r\n            ratings[i] = freelancerRatings[ratingIds[i]];\r\n        }\r\n        \r\n        return ratings;\r\n    }\r\n\r\n    /**\r\n     * Get average rating for a freelancer\r\n     */\r\n    function getFreelancerAverageRating(address _freelancer) public view returns (uint) {\r\n        uint[] memory ratingIds = freelancerRatingsList[_freelancer];\r\n        if (ratingIds.length == 0) return 0;\r\n        \r\n        uint totalRating = 0;\r\n        for (uint i = 0; i < ratingIds.length; i++) {\r\n            totalRating += freelancerRatings[ratingIds[i]].rating;\r\n        }\r\n        \r\n        return totalRating / ratingIds.length;\r\n    }\r\n\r\n    /**\r\n     * Mark project as completed by employer (client)\r\n     */\r\n    function completeProject(uint _requestId) public {\r\n        Request storage request = requests[_requestId];\r\n        require(request.freelancer != address(0), \"Request does not exist\");\r\n        require(request.status == RequestStatus.Accepted, \"Request must be accepted\");\r\n        \r\n        // Get employer address from project\r\n        (,, , , , address employer) = projectsContract.getProject(request.projectId);\r\n        require(msg.sender == employer, \"Only the employer can complete the project\");\r\n        \r\n        projectCompletionCount++;\r\n        projectCompletions[projectCompletionCount] = ProjectCompletion({\r\n            completionId: projectCompletionCount,\r\n            projectId: request.projectId,\r\n            requestId: _requestId,\r\n            employer: employer,\r\n            freelancer: request.freelancer,\r\n            isCompleted: true,\r\n            completionTime: block.timestamp\r\n        });\r\n        \r\n        emit ProjectCompleted(request.projectId, _requestId, employer, request.freelancer);\r\n    }\r\n\r\n    /**\r\n     * Get project completion status\r\n     */\r\n    function getProjectCompletion(uint _projectId) public view returns (ProjectCompletion memory) {\r\n        for (uint i = 1; i <= projectCompletionCount; i++) {\r\n            if (projectCompletions[i].projectId == _projectId) {\r\n                return projectCompletions[i];\r\n            }\r\n        }\r\n        revert(\"Project completion not found\");\r\n    }\r\n}\r\n\r\n",
  "sourcePath": "C:\\Users\\malik\\OneDrive\\Desktop\\BTECH\\Final_year_project\\proj-2\\Proj-Copy\\Delance\\truffle_project\\contracts\\RequestManager.sol",
  "compiler": {
    "name": "solc",
    "version": "0.8.34+commit.80d5c536.Emscripten.clang"
  },
  "schemaVersion": "3.4.16",
  "updatedAt": "2026-03-22T12:03:37.495Z",
  "networkType": "ethereum",
  "devdoc": {
    "kind": "dev",
    "methods": {},
    "version": 1
  },
  "userdoc": {
    "kind": "user",
    "methods": {
      "completeProject(uint256)": {
        "notice": "Mark project as completed by employer (client)"
      },
      "getFreelancerAverageRating(address)": {
        "notice": "Get average rating for a freelancer"
      },
      "getFreelancerRatings(address)": {
        "notice": "Get all ratings for a specific freelancer"
      },
      "getProjectCompletion(uint256)": {
        "notice": "Get project completion status"
      },
      "getRequestDrafts(uint256)": {
        "notice": "Get all request drafts for a specific request"
      },
      "rateFreelancer(uint256,uint256,string)": {
        "notice": "Allows employer (client) to rate freelancer"
      },
      "sendRequestDraft(uint256,string)": {
        "notice": "Send a request draft from freelancer to employer (client)"
      }
    },
    "version": 1
  }
}