{
  "contractName": "Projects",
  "abi": [
    {
      "anonymous": false,
      "inputs": [
        {
          "indexed": false,
          "internalType": "uint256",
          "name": "projectId",
          "type": "uint256"
        },
        {
          "indexed": false,
          "internalType": "uint256",
          "name": "milestoneId",
          "type": "uint256"
        },
        {
          "indexed": false,
          "internalType": "string",
          "name": "name",
          "type": "string"
        },
        {
          "indexed": false,
          "internalType": "uint256",
          "name": "percentage",
          "type": "uint256"
        }
      ],
      "name": "MilestoneAdded",
      "type": "event"
    },
    {
      "anonymous": false,
      "inputs": [
        {
          "indexed": false,
          "internalType": "uint256",
          "name": "projectId",
          "type": "uint256"
        },
        {
          "indexed": false,
          "internalType": "uint256",
          "name": "milestoneId",
          "type": "uint256"
        },
        {
          "indexed": false,
          "internalType": "string",
          "name": "proofFileHash",
          "type": "string"
        }
      ],
      "name": "MilestoneProofUploaded",
      "type": "event"
    },
    {
      "anonymous": false,
      "inputs": [
        {
          "indexed": false,
          "internalType": "uint256",
          "name": "id",
          "type": "uint256"
        },
        {
          "indexed": false,
          "internalType": "string",
          "name": "name",
          "type": "string"
        },
        {
          "indexed": false,
          "internalType": "address",
          "name": "employer",
          "type": "address"
        }
      ],
      "name": "ProjectAdded",
      "type": "event"
    },
    {
      "inputs": [
        {
          "internalType": "address",
          "name": "",
          "type": "address"
        }
      ],
      "name": "freelancerRatings",
      "outputs": [
        {
          "internalType": "uint256",
          "name": "",
          "type": "uint256"
        }
      ],
      "stateMutability": "view",
      "type": "function",
      "constant": true
    },
    {
      "inputs": [],
      "name": "milestoneCount",
      "outputs": [
        {
          "internalType": "uint256",
          "name": "",
          "type": "uint256"
        }
      ],
      "stateMutability": "view",
      "type": "function",
      "constant": true
    },
    {
      "inputs": [
        {
          "internalType": "uint256",
          "name": "",
          "type": "uint256"
        },
        {
          "internalType": "uint256",
          "name": "",
          "type": "uint256"
        }
      ],
      "name": "milestones",
      "outputs": [
        {
          "internalType": "uint256",
          "name": "id",
          "type": "uint256"
        },
        {
          "internalType": "uint256",
          "name": "projectId",
          "type": "uint256"
        },
        {
          "internalType": "string",
          "name": "name",
          "type": "string"
        },
        {
          "internalType": "string",
          "name": "description",
          "type": "string"
        },
        {
          "internalType": "uint256",
          "name": "daycount",
          "type": "uint256"
        },
        {
          "internalType": "uint256",
          "name": "percentage",
          "type": "uint256"
        },
        {
          "internalType": "bool",
          "name": "completed",
          "type": "bool"
        },
        {
          "internalType": "string",
          "name": "proofFileHash",
          "type": "string"
        }
      ],
      "stateMutability": "view",
      "type": "function",
      "constant": true
    },
    {
      "inputs": [],
      "name": "projectCount",
      "outputs": [
        {
          "internalType": "uint256",
          "name": "",
          "type": "uint256"
        }
      ],
      "stateMutability": "view",
      "type": "function",
      "constant": true
    },
    {
      "inputs": [
        {
          "internalType": "uint256",
          "name": "",
          "type": "uint256"
        }
      ],
      "name": "projects",
      "outputs": [
        {
          "internalType": "uint256",
          "name": "id",
          "type": "uint256"
        },
        {
          "internalType": "string",
          "name": "name",
          "type": "string"
        },
        {
          "internalType": "string",
          "name": "description",
          "type": "string"
        },
        {
          "internalType": "uint256",
          "name": "reward",
          "type": "uint256"
        },
        {
          "internalType": "enum Projects.Status",
          "name": "status",
          "type": "uint8"
        },
        {
          "internalType": "address",
          "name": "employer",
          "type": "address"
        }
      ],
      "stateMutability": "view",
      "type": "function",
      "constant": true
    },
    {
      "inputs": [
        {
          "internalType": "string",
          "name": "_name",
          "type": "string"
        },
        {
          "internalType": "string",
          "name": "_description",
          "type": "string"
        },
        {
          "internalType": "uint256",
          "name": "_reward",
          "type": "uint256"
        }
      ],
      "name": "addProject",
      "outputs": [],
      "stateMutability": "nonpayable",
      "type": "function"
    },
    {
      "inputs": [
        {
          "internalType": "uint256",
          "name": "_projectId",
          "type": "uint256"
        },
        {
          "internalType": "string",
          "name": "_name",
          "type": "string"
        },
        {
          "internalType": "string",
          "name": "_description",
          "type": "string"
        },
        {
          "internalType": "uint256",
          "name": "_daycount",
          "type": "uint256"
        },
        {
          "internalType": "uint256",
          "name": "_percentage",
          "type": "uint256"
        }
      ],
      "name": "addMilestone",
      "outputs": [],
      "stateMutability": "nonpayable",
      "type": "function"
    },
    {
      "inputs": [
        {
          "internalType": "uint256",
          "name": "_projectId",
          "type": "uint256"
        },
        {
          "internalType": "uint256",
          "name": "_milestoneId",
          "type": "uint256"
        },
        {
          "internalType": "address",
          "name": "_freelancer",
          "type": "address"
        },
        {
          "internalType": "string",
          "name": "_proofFileHash",
          "type": "string"
        }
      ],
      "name": "uploadMilestoneProof",
      "outputs": [],
      "stateMutability": "nonpayable",
      "type": "function"
    },
    {
      "inputs": [
        {
          "internalType": "address",
          "name": "_freelancer",
          "type": "address"
        }
      ],
      "name": "getFreelancerRating",
      "outputs": [
        {
          "internalType": "uint256",
          "name": "",
          "type": "uint256"
        }
      ],
      "stateMutability": "view",
      "type": "function",
      "constant": true
    },
    {
      "inputs": [
        {
          "internalType": "uint256",
          "name": "_id",
          "type": "uint256"
        }
      ],
      "name": "getProject",
      "outputs": [
        {
          "internalType": "uint256",
          "name": "",
          "type": "uint256"
        },
        {
          "internalType": "string",
          "name": "",
          "type": "string"
        },
        {
          "internalType": "string",
          "name": "",
          "type": "string"
        },
        {
          "internalType": "uint256",
          "name": "",
          "type": "uint256"
        },
        {
          "internalType": "enum Projects.Status",
          "name": "",
          "type": "uint8"
        },
        {
          "internalType": "address",
          "name": "",
          "type": "address"
        }
      ],
      "stateMutability": "view",
      "type": "function",
      "constant": true
    },
    {
      "inputs": [],
      "name": "viewProjects",
      "outputs": [
        {
          "internalType": "uint256[]",
          "name": "ids",
          "type": "uint256[]"
        },
        {
          "internalType": "string[]",
          "name": "names",
          "type": "string[]"
        },
        {
          "internalType": "string[]",
          "name": "descriptions",
          "type": "string[]"
        },
        {
          "internalType": "uint256[]",
          "name": "rewards",
          "type": "uint256[]"
        },
        {
          "internalType": "enum Projects.Status[]",
          "name": "statuses",
          "type": "uint8[]"
        },
        {
          "internalType": "address[]",
          "name": "employers",
          "type": "address[]"
        }
      ],
      "stateMutability": "view",
      "type": "function",
      "constant": true
    },
    {
      "inputs": [],
      "name": "viewOpenProjects",
      "outputs": [
        {
          "internalType": "uint256[]",
          "name": "ids",
          "type": "uint256[]"
        },
        {
          "internalType": "string[]",
          "name": "names",
          "type": "string[]"
        },
        {
          "internalType": "string[]",
          "name": "descriptions",
          "type": "string[]"
        },
        {
          "internalType": "uint256[]",
          "name": "rewards",
          "type": "uint256[]"
        },
        {
          "internalType": "enum Projects.Status[]",
          "name": "statuses",
          "type": "uint8[]"
        },
        {
          "internalType": "address[]",
          "name": "employers",
          "type": "address[]"
        }
      ],
      "stateMutability": "view",
      "type": "function",
      "constant": true
    },
    {
      "inputs": [
        {
          "internalType": "uint256",
          "name": "_projectId",
          "type": "uint256"
        }
      ],
      "name": "getMilestones",
      "outputs": [
        {
          "internalType": "uint256[]",
          "name": "ids",
          "type": "uint256[]"
        },
        {
          "internalType": "uint256[]",
          "name": "projectIds",
          "type": "uint256[]"
        },
        {
          "internalType": "string[]",
          "name": "names",
          "type": "string[]"
        },
        {
          "internalType": "string[]",
          "name": "descriptions",
          "type": "string[]"
        },
        {
          "internalType": "uint256[]",
          "name": "daycounts",
          "type": "uint256[]"
        },
        {
          "internalType": "uint256[]",
          "name": "percentages",
          "type": "uint256[]"
        },
        {
          "internalType": "bool[]",
          "name": "completions",
          "type": "bool[]"
        },
        {
          "internalType": "string[]",
          "name": "proofFileHashes",
          "type": "string[]"
        }
      ],
      "stateMutability": "view",
      "type": "function",
      "constant": true
    },
    {
      "inputs": [
        {
          "internalType": "uint256",
          "name": "_id",
          "type": "uint256"
        }
      ],
      "name": "closeProject",
      "outputs": [],
      "stateMutability": "nonpayable",
      "type": "function"
    },
    {
      "inputs": [
        {
          "internalType": "uint256",
          "name": "_projectId",
          "type": "uint256"
        },
        {
          "internalType": "uint256",
          "name": "_milestoneId",
          "type": "uint256"
        }
      ],
      "name": "completeMilestone",
      "outputs": [],
      "stateMutability": "nonpayable",
      "type": "function"
    },
    {
      "inputs": [
        {
          "internalType": "address",
          "name": "_freelancer",
          "type": "address"
        },
        {
          "internalType": "uint256",
          "name": "_rating",
          "type": "uint256"
        }
      ],
      "name": "setFreelancerRating",
      "outputs": [],
      "stateMutability": "nonpayable",
      "type": "function"
    }
  ],
  "bytecode": "0x60808060405234601557611db7908161001b8239f35b600080fdfe6080604052600436101561001257600080fd5b7c0100000000000000000000000000000000000000000000000000000000600035048063063dca0c1461184e5780630681ca5514611830578063107046bd146117c55780631c376c63146116fd57806327db21e11461158d578063310f9411146115e557806336fbad26146115c75780633a766ddf1461158d57806342c549c0146112a257806353eef060146110eb578063563700d514610abe5780635fd4f7581461070a57806393dc12e61461063c578063d0b206911461031d578063f0f3f2c8146102235763f326206b146100e857600080fd5b3461021e576100f636611a77565b9080151580610212575b61010990611d33565b811515806101fa575b156101b35760005260016020526040600020600019820191821161019a5760069161013c91611a8d565b5001805460ff81166101535760ff19166001179055005b606460405160e560020a62461bcd02815260206004820152601b60248201527f4d696c6573746f6e6520616c726561647920636f6d706c6574656400000000006044820152fd5b60e060020a634e487b7102600052601160045260246000fd5b606460405160e560020a62461bcd02815260206004820152601860248201527f4d696c6573746f6e6520646f6573206e6f7420657869737400000000000000006044820152fd5b50806000526001602052604060002054821115610112565b50600354811115610100565b600080fd5b3461021e57602036600319011261021e5760043580151580610311575b61024990611d33565b60005260006020526040600020604051610262816118f7565b8154815261027260018301611935565b906020810191825261028660028401611935565b926040820193845260046003820154916060840192835201549160808101906102b260ff851683611d27565b600160a060020a0361010060a0830195041684525193519451915190519060028210156102f857600160a060020a036102f49451169260405196879687611a26565b0390f35b60e060020a634e487b7102600052602160045260246000fd5b50600354811115610240565b3461021e57608036600319011261021e5760043560243560443591600160a060020a03831680930361021e5760643567ffffffffffffffff811161021e57610369903690600401611c1a565b9281151580610630575b61037c90611d33565b33036105c357811515806105ab575b1561056457806000526001602052604060002060001983019083821161019a576007916103b791611a8d565b5001835167ffffffffffffffff811161054b576103d4825461189c565b601f81116104f5575b506020601f8211600114610467579181610431817fa242dc265ec329d765b4d1175eb5f3d36f052da4b6bf61b340d71ca9846ca7a298946104579660009161045c575b509060080260020a60001904191690565b906002021790555b604051938493845260208401526060604084015260608301906119d8565b0390a1005b90508501518a610420565b601f1982169083600052806000209160005b8181106104dd57508361045795936001937fa242dc265ec329d765b4d1175eb5f3d36f052da4b6bf61b340d71ca9846ca7a29a96600294106104c1575b505002019055610439565b8601516008601f84160260020a600019041916905589806104b6565b9192602060018192868c015181550194019201610479565b818111156103dd578260005260206000206020601f8401049060208410610542575b601f8260209201930104039060005b8281106105345750506103dd565b600082820155600101610526565b60009150610517565b60e060020a634e487b7102600052604160045260246000fd5b606460405160e560020a62461bcd02815260206004820152601460248201527f496e76616c6964206d696c6573746f6e652049440000000000000000000000006044820152fd5b5080600052600160205260406000205482111561038b565b608460405160e560020a62461bcd02815260206004820152602d60248201527f4f6e6c79207468652061737369676e656420667265656c616e6365722063616e60448201527f2075706c6f61642070726f6f66000000000000000000000000000000000000006064820152fd5b50600354821115610373565b3461021e57602036600319011261021e57600435801515806106fe575b61066290611d33565b60005260006020526004604060002001600160a060020a0361010082540416330361069157805460ff19169055005b608460405160e560020a62461bcd02815260206004820152602860248201527f4f6e6c792074686520656d706c6f7965722063616e20636c6f7365207468697360448201527f2070726f6a6563740000000000000000000000000000000000000000000000006064820152fd5b50600354811115610659565b3461021e57606036600319011261021e5760043567ffffffffffffffff811161021e5761073b903690600401611c1a565b60243567ffffffffffffffff811161021e5761075b903690600401611c1a565b90610767600354611d05565b9081600355604051610778816118f7565b82815260208101908282526040810194855260608101604435815260808201926001845260a0830195338752600052600060205260406000209251835560018301905180519067ffffffffffffffff821161054b576107d7835461189c565b601f8111610a68575b5081602091601f82116001146109fc5761080f926000918361092c575b50509060080260020a60001904191690565b906002021790555b60028201955195865167ffffffffffffffff811161054b57610839825461189c565b601f81116109a6575b506020601f821160011461093757818061087592600498999a9b60009261092c5750509060080260020a60001904191690565b906002021790555b51600382015501905160028110156102f8577f0c37be42d09c868de3d7b2154026972d847472b2d254f8f2f6a8f1be3a450e6a93600160a060020a039160ff80198554169116178355511674ffffffffffffffffffffffffffffffffffffffff0061010083549202169074ffffffffffffffffffffffffffffffffffffffff00191617905560035461092160405192839283526060602084015260608301906119d8565b3360408301520390a1005b015190508b806107fd565b601f1982169083600052806000209160005b81811061098e57509160049798999a849260019560029510610972575b5050500201905561087d565b01516008601f84160260020a60001904191690558a8080610966565b9192602060018192868f015181550194019201610949565b81811115610842578260005260206000206020601f84010490602084106109f3575b601f8260209201930104039060005b8281106109e5575050610842565b6000828201556001016109d7565b600091506109c8565b9050601f1983169184600052806000209260005b818110610a5057509160029391856001969410610a34575b50505002019055610817565b01516008601f84160260020a60001904191690558a8080610a28565b91936020600181928787015181550195019201610a10565b828111156107e0578360005260206000206020601f8501049060208510610ab5575b601f8260209201930104039060005b828110610aa75750506107e0565b600082820155600101610a99565b60009150610a8a565b3461021e5760a036600319011261021e5760043560243567ffffffffffffffff811161021e57610af2903690600401611c1a565b60443567ffffffffffffffff811161021e57610b12903690600401611c1a565b9160843590801515806110df575b610b2990611d33565b806000526000602052600160a060020a03610100600460406000200154041633036110735781151580611068575b1561102157610b67600454611d05565b9182600455816000526001602052604060002060405193610b87856118da565b84526020840193838552604081018681526060820197885260808201606435815260a083019085825260c08401926000845260209860405196610bca8b89611913565b6000885260e0870197885280546801000000000000000081101561054b57610bf791600182018155611a8d565b96909661100857518655516001860155518051600286019167ffffffffffffffff821161054b57610c28835461189c565b601f8111610fb6575b50818b91601f8211600114610f4a57610c5e9260009183610e7d5750509060080260020a60001904191690565b906002021790555b600384019951998a5167ffffffffffffffff811161054b57610c88825461189c565b601f8111610ef8575b5089601f8211600114610e88578180610cc59260079a9b9c9d9e9f600092610e7d5750509060080260020a60001904191690565b906002021790555b516004840155516005830155600682019051151560ff8019835416911617905501905180519067ffffffffffffffff821161054b57610d0c835461189c565b601f8111610e2b575b508590601f8311600114610d9c5791610d6a8180610d9196947fc67423104bf96f5ca8826913ae711e8c2254e1b2c04af907b2312853ed4cbed29b9660009261092c5750509060080260020a60001904191690565b906002021790555b60045460405195869586528501526080604085015260808401906119d8565b9060608301520390a1005b601f1983169184600052876000209260005b818110610e14575093610d919593600193600293837fc67423104bf96f5ca8826913ae711e8c2254e1b2c04af907b2312853ed4cbed29d9810610df8575b50505002019055610d72565b01516008601f84160260020a60001904191690558a8080610dec565b919389600181928787015181550195019201610dae565b82811115610d155783600052866000208780601f86010491818610610e74575b82601f9101930104039060005b828110610e66575050610d15565b600082820155600101610e58565b60009250610e4b565b015190508f806107fd565b601f19821690836000528b6000209160005b818110610ee15750916007999a9b9c9d9e849260019560029510610ec5575b50505002019055610ccd565b01516008601f84160260020a60001904191690558e8080610eb9565b8f8301518455600190930192918d01918d01610e9a565b81811115610c9157826000528a6000208b80601f85010491818510610f41575b82601f9101930104039060005b828110610f33575050610c91565b600082820155600101610f25565b60009250610f18565b60008581528d812093919250601f198516908e5b828210610f9f5750509160029391856001969410610f83575b50505002019055610c66565b01516008601f84160260020a60001904191690558e8080610f77565b60018496829395870151815501950192018e610f5e565b82811115610c3157836000528b6000208c80601f86010491818610610fff575b82601f9101930104039060005b828110610ff1575050610c31565b600082820155600101610fe3565b60009250610fd6565b60e060020a634e487b7102600052600060045260246000fd5b606460405160e560020a62461bcd02815260206004820152601260248201527f496e76616c69642070657263656e7461676500000000000000000000000000006044820152fd5b506064821115610b57565b608460405160e560020a62461bcd028152602060048201526024808201527f4f6e6c792074686520656d706c6f7965722063616e20616464206d696c65737460448201527f6f6e6573000000000000000000000000000000000000000000000000000000006064820152fd5b50600354811115610b20565b3461021e57600036600319011261021e57600354600060015b82811115611259575061111681611c89565b61111f82611cbb565b9161112981611cbb565b9061113381611c89565b61114561113f83611c89565b92611c89565b92600060015b88811115611166575050604051965086956102f49587611b4c565b80600052600060205260ff6004604060002001541660028110156102f85788600189921461119f575b505061119a90611d05565b61114b565b92600160a060020a03610100600461124f946111f285889961119a9960005260006020526040600020936111d583865492611d14565b526111e260018501611935565b6111ec8383611d14565b52611d14565b506111ff60028201611935565b611209868b611d14565b52611214858a611d14565b506003810154611224868c611d14565b52015461123d60ff8216611238868d611d14565b611d27565b0416611249828a611d14565b52611d05565b919050868861118f565b80600052600060205260ff6004604060002001541660028110156102f85760011461128d575b61128890611d05565b611104565b9061129a61128891611d05565b91905061127f565b3461021e57602036600319011261021e5760043580151580611581575b6112c890611d33565b6000526001602052604060002080546112e081611c71565b916112ee6040519384611913565b818352602083019060005260206000206000915b8383106114fe5784805161131581611c89565b9161131f82611c89565b61132883611cbb565b61133184611cbb565b61133a85611c89565b9161134486611c89565b9661134e87611c71565b9461135c6040519687611913565b87865261136888611c71565b602087019890601f1901368a3761137e81611cbb565b9760005b82811061144957505050936113e6611402946113d86113bd9a9b956113ca6113f49660209a6040519e8f926101008452610100840190611ac2565b918c818403910152611ac2565b8c810360408e015290611af6565b908a820360608c0152611af6565b9088820360808a0152611ac2565b9086820360a0880152611ac2565b9184830360c0860152519182815201939060005b8181106114315784806102f4888783820360e0850152611af6565b82511515865260209586019590920191600101611416565b8060e08d61145960019486611d14565b51908151611467858b611d14565b526020820151611477858a611d14565b526040820151611487858c611d14565b52611492848b611d14565b5060608201516114a2858d611d14565b526114ad848c611d14565b5060808201516114bd858e611d14565b526114cd8460a084015192611d14565b5260c081015115156114df848e611d14565b5201516114ec828d611d14565b526114f7818c611d14565b5001611382565b60086020600192604051611511816118da565b85548152848601548382015261152960028701611935565b604082015261153a60038701611935565b606082015260048601546080820152600586015460a082015260ff600687015416151560c082015261156e60078701611935565b60e0820152815201920192019190611302565b506003548111156112bf565b3461021e57602036600319011261021e57600160a060020a036115ae611886565b1660005260026020526020604060002054604051908152f35b3461021e57600036600319011261021e576020600354604051908152f35b3461021e57600036600319011261021e5760035461160281611c89565b9061160c81611cbb565b9161161682611cbb565b61161f83611c89565b61162884611c89565b9061163285611c89565b9260015b868111156116505750604051968796506102f49587611b4c565b806000526000602052604060002090815460001982019082821161019a57600160a060020a036101006116f8956112499361168b868e611d14565b528d6116a0866000926111e260018601611935565b50506116ae60028201611935565b6116b8868a611d14565b526116c38589611d14565b5060046003820154916000926116d9888d611d14565b52015490506116ef60ff8216611238878d611d14565b04169188611d14565b611636565b3461021e5761170b36611a77565b906000526001602052604060002090815481101561021e5761172c91611a8d565b5080546102f460018301549261174460028201611935565b61175060038301611935565b916004810154926117a6600583015491611798611777600760ff6006880154169601611935565b956040519a8b9a8b5260208b015261010060408b01526101008a01906119d8565b9088820360608a01526119d8565b93608087015260a0860152151560c085015283820360e08501526119d8565b3461021e57602036600319011261021e57600435600052600060205260406000208054906102f46117f860018301611935565b9161180560028201611935565b93600460038301549201549160405195869560ff600160a060020a0361010087041695169387611a26565b3461021e57600036600319011261021e576020600454604051908152f35b3461021e57604036600319011261021e57600160a060020a0361186f611886565b166000526002602052602435604060002055600080f35b60043590600160a060020a038216820361021e57565b90600160028304921680156118d0575b60208310146118b757565b60e060020a634e487b7102600052602260045260246000fd5b91607f16916118ac565b610100810190811067ffffffffffffffff82111761054b57604052565b60c0810190811067ffffffffffffffff82111761054b57604052565b90601f8019910116810190811067ffffffffffffffff82111761054b57604052565b90604051918260008254926119498461189c565b80845293600181169081156119b75750600114611970575b5061196e92500383611913565b565b90506000929192526020600020906000915b81831061199b57505090602061196e9282010138611961565b6020919350806001915483858901015201910190918492611982565b90506020925061196e94915060ff1916828401521515810282010138611961565b919082519283825260005b848110611a04575050826000602080949584010152601f8019910116010190565b806020809284010151828286010152016119e3565b9060028210156102f85752565b94611a61600160a060020a0394611a5360a0979a9995611a71958a5260c060208b015260c08a01906119d8565b9088820360408a01526119d8565b9760608701526080860190611a19565b16910152565b604090600319011261021e576004359060243590565b8054821015611aa9576000526008602060002091020190600090565b60e060020a634e487b7102600052603260045260246000fd5b906020808351928381520192019060005b818110611ae05750505090565b8251845260209384019390920191600101611ad3565b805180835260208181028401810193928101926000918101905b838310611b1f57505050505090565b9091929394602080611b3d600193601f1986820301875289516119d8565b97019301930191939290611b10565b939192611b79611b9594611b6b611b879460c0895260c0890190611ac2565b908782036020890152611af6565b908582036040870152611af6565b908382036060850152611ac2565b81810360808301526020808451928381520193019060005b818110611bfb5750505060a08183039101526020808351928381520192019060005b818110611bdc5750505090565b8251600160a060020a0316845260209384019390920191600101611bcf565b90919360208082611c0f6001948951611a19565b019501929101611bad565b81601f8201121561021e5780359067ffffffffffffffff821161054b5760405192611c4f601f8401601f191660200185611913565b8284526020838301011161021e57816000926020809301838601378301015290565b67ffffffffffffffff811161054b5760208091020190565b90611c9382611c71565b611ca06040519182611913565b8281528092611cb1601f1991611c71565b0190602036910137565b90611cc582611c71565b611cd26040519182611913565b8281528092611ce3601f1991611c71565b019060005b828110611cf457505050565b806060602080938501015201611ce8565b600019811461019a5760010190565b8051821015611aa9576020809202010190565b60028210156102f85752565b15611d3a57565b606460405160e560020a62461bcd02815260206004820152601660248201527f50726f6a65637420646f6573206e6f74206578697374000000000000000000006044820152fdfea264697066735822122005b4718667307aea4e3c118ea8df121773a9a5dce89cc195f39dd8372993ccab64736f6c63430008220033",
  "immutableReferences": {},
  "source": "// SPDX-License-Identifier: MIT\r\npragma solidity >=0.8.7;\r\n\r\n// import \"./RequestManager.sol\";\r\n\r\ncontract Projects {\r\n    \r\n    enum Status { Closed, Open }\r\n\r\n    struct Project {\r\n        uint id;\r\n        string name;\r\n        string description;\r\n        uint reward;\r\n        Status status;\r\n        address employer;\r\n    }\r\n\r\n    struct Milestone {\r\n        uint id;\r\n        uint projectId;\r\n        string name;\r\n        string description;\r\n        uint daycount;\r\n        uint percentage;\r\n        bool completed;\r\n        string proofFileHash; // To store proof file hash\r\n    }\r\n\r\n    mapping(uint => Project) public projects;\r\n    mapping(uint => Milestone[]) public milestones;\r\n    mapping(address => uint) public freelancerRatings; // Map freelancer address to their rating (in basis points out of 5 * 100)\r\n\r\n    uint public projectCount;\r\n    uint public milestoneCount;\r\n\r\n    // RequestManager public requestManager;\r\n\r\n    event ProjectAdded(uint id, string name, address employer);\r\n    event MilestoneAdded(uint projectId, uint milestoneId, string name, uint percentage);\r\n    event MilestoneProofUploaded(uint projectId, uint milestoneId, string proofFileHash);\r\n    // constructor(address _requestManager) {\r\n    //     requestManager = RequestManager(_requestManager);\r\n    // }\r\n\r\n    function addProject(string memory _name, string memory _description, uint _reward) public {\r\n        projectCount++;\r\n        projects[projectCount] = Project({\r\n            id: projectCount,\r\n            name: _name,\r\n            description: _description,\r\n            reward: _reward,\r\n            status: Status.Open,\r\n            employer: msg.sender\r\n        });\r\n\r\n        emit ProjectAdded(projectCount, _name, msg.sender);\r\n    }\r\n\r\n    function addMilestone(uint _projectId, string memory _name, string memory _description, uint _daycount, uint _percentage) public {\r\n        require(_projectId > 0 && _projectId <= projectCount, \"Project does not exist\");\r\n        require(msg.sender == projects[_projectId].employer, \"Only the employer can add milestones\");\r\n        require(_percentage > 0 && _percentage <= 100, \"Invalid percentage\");\r\n\r\n        milestoneCount++;\r\n        milestones[_projectId].push(Milestone({\r\n            id: milestoneCount,\r\n            projectId: _projectId,\r\n            name: _name,\r\n            description: _description,\r\n            daycount: _daycount,\r\n            percentage: _percentage,\r\n            completed: false,\r\n            proofFileHash: \"\" // Initialize proof file hash as empty\r\n        }));\r\n\r\n        emit MilestoneAdded(_projectId, milestoneCount, _name, _percentage);\r\n    }\r\n\r\n    function uploadMilestoneProof(uint _projectId, uint _milestoneId, address _freelancer, string memory _proofFileHash) public {\r\n        require(_projectId > 0 && _projectId <= projectCount, \"Project does not exist\");\r\n        require(msg.sender == _freelancer, \"Only the assigned freelancer can upload proof\");\r\n\r\n        // Check if the milestone exists\r\n        require(_milestoneId > 0 && _milestoneId <= milestones[_projectId].length, \"Invalid milestone ID\");\r\n\r\n        // Store the proof file hash for the milestone\r\n        milestones[_projectId][_milestoneId - 1].proofFileHash = _proofFileHash;\r\n\r\n        emit MilestoneProofUploaded(_projectId, _milestoneId, _proofFileHash);\r\n    }\r\n\r\n\r\n\r\n    function getFreelancerRating(address _freelancer) public view returns (uint) {\r\n        return freelancerRatings[_freelancer];\r\n    }\r\n\r\n    function getProject(uint _id) public view returns (uint, string memory, string memory, uint, Status, address) {\r\n        require(_id > 0 && _id <= projectCount, \"Project does not exist\");\r\n        Project memory proj = projects[_id];\r\n        return (proj.id, proj.name, proj.description, proj.reward, proj.status, proj.employer);\r\n    }\r\n\r\n    function viewProjects() public view returns (\r\n        uint[] memory ids, \r\n        string[] memory names, \r\n        string[] memory descriptions, \r\n        uint[] memory rewards, \r\n        Status[] memory statuses, \r\n        address[] memory employers\r\n    ) {\r\n        ids = new uint[](projectCount);\r\n        names = new string[](projectCount);\r\n        descriptions = new string[](projectCount);\r\n        rewards = new uint[](projectCount);\r\n        statuses = new Status[](projectCount);\r\n        employers = new address[](projectCount);\r\n\r\n        for (uint i = 1; i <= projectCount; i++) {\r\n            Project storage proj = projects[i];\r\n            ids[i - 1] = proj.id;\r\n            names[i - 1] = proj.name;\r\n            descriptions[i - 1] = proj.description;\r\n            rewards[i - 1] = proj.reward;\r\n            statuses[i - 1] = proj.status;\r\n            employers[i - 1] = proj.employer;\r\n        }\r\n\r\n        return (ids, names, descriptions, rewards, statuses, employers);\r\n    }\r\n\r\n    function viewOpenProjects() public view returns (\r\n        uint[] memory ids, \r\n        string[] memory names, \r\n        string[] memory descriptions, \r\n        uint[] memory rewards, \r\n        Status[] memory statuses, \r\n        address[] memory employers\r\n    ) {\r\n        uint openCount = 0;\r\n        for (uint i = 1; i <= projectCount; i++) {\r\n            if (projects[i].status == Status.Open) {\r\n                openCount++;\r\n            }\r\n        }\r\n\r\n        ids = new uint[](openCount);\r\n        names = new string[](openCount);\r\n        descriptions = new string[](openCount);\r\n        rewards = new uint[](openCount);\r\n        statuses = new Status[](openCount);\r\n        employers = new address[](openCount);\r\n\r\n        uint index = 0;\r\n        for (uint i = 1; i <= projectCount; i++) {\r\n            if (projects[i].status == Status.Open) {\r\n                Project storage proj = projects[i];\r\n                ids[index] = proj.id;\r\n                names[index] = proj.name;\r\n                descriptions[index] = proj.description;\r\n                rewards[index] = proj.reward;\r\n                statuses[index] = proj.status;\r\n                employers[index] = proj.employer;\r\n                index++;\r\n            }\r\n        }\r\n\r\n        return (ids, names, descriptions, rewards, statuses, employers);\r\n    }\r\n\r\n    function getMilestones(uint _projectId) \r\n        public view \r\n        returns (\r\n            uint[] memory ids, \r\n            uint[] memory projectIds, \r\n            string[] memory names, \r\n            string[] memory descriptions, \r\n            uint[] memory daycounts, \r\n            uint[] memory percentages, \r\n            bool[] memory completions, \r\n            string[] memory proofFileHashes\r\n        ) \r\n    {\r\n        require(_projectId > 0 && _projectId <= projectCount, \"Project does not exist\");\r\n\r\n        Milestone[] memory projectMilestones = milestones[_projectId];\r\n        uint milestonesCount = projectMilestones.length;\r\n\r\n        // Initialize arrays for each field in Milestone\r\n        ids = new uint[](milestonesCount);\r\n        projectIds = new uint[](milestonesCount);\r\n        names = new string[](milestonesCount);\r\n        descriptions = new string[](milestonesCount);\r\n        daycounts = new uint[](milestonesCount);\r\n        percentages = new uint[](milestonesCount);\r\n        completions = new bool[](milestonesCount);\r\n        proofFileHashes = new string[](milestonesCount);\r\n\r\n        // Populate each array with the corresponding data from each milestone\r\n        for (uint i = 0; i < milestonesCount; i++) {\r\n            Milestone memory milestone = projectMilestones[i];\r\n            ids[i] = milestone.id;\r\n            projectIds[i] = milestone.projectId;\r\n            names[i] = milestone.name;\r\n            descriptions[i] = milestone.description;\r\n            daycounts[i] = milestone.daycount;\r\n            percentages[i] = milestone.percentage;\r\n            completions[i] = milestone.completed;\r\n            proofFileHashes[i] = milestone.proofFileHash;\r\n        }\r\n\r\n        return (\r\n            ids, \r\n            projectIds, \r\n            names, \r\n            descriptions, \r\n            daycounts, \r\n            percentages, \r\n            completions, \r\n            proofFileHashes\r\n        );\r\n    }\r\n\r\n    function closeProject(uint _id) public {\r\n        require(_id > 0 && _id <= projectCount, \"Project does not exist\");\r\n        Project storage proj = projects[_id];\r\n        require(msg.sender == proj.employer, \"Only the employer can close this project\");\r\n        proj.status = Status.Closed;\r\n    }\r\n\r\n    function completeMilestone(uint _projectId, uint _milestoneId) public {\r\n        require(_projectId > 0 && _projectId <= projectCount, \"Project does not exist\");\r\n        require(_milestoneId > 0 && _milestoneId <= milestones[_projectId].length, \"Milestone does not exist\");\r\n        \r\n        Milestone storage milestone = milestones[_projectId][_milestoneId - 1];\r\n        require(!milestone.completed, \"Milestone already completed\");\r\n        \r\n        milestone.completed = true; // Mark the milestone as completed\r\n    }\r\n\r\n    function setFreelancerRating(address _freelancer, uint _rating) public {\r\n        // Ensure only the owner of the contract can set the rating\r\n        // require(msg.sender == owner, \"Only the owner can set the rating\"); // Adjust ownership logic as necessary\r\n        freelancerRatings[_freelancer] = _rating;\r\n    }\r\n\r\n\r\n}\r\n",
  "sourcePath": "C:\\Users\\malik\\OneDrive\\Desktop\\BTECH\\Final_year_project\\proj-2\\Delance\\truffle_project\\contracts\\Projects.sol",
  "compiler": {
    "name": "solc",
    "version": "0.8.34+commit.80d5c536.Emscripten.clang"
  },
  "schemaVersion": "3.4.16",
  "updatedAt": "2026-03-19T04:26:59.033Z",
  "networkType": "ethereum",
  "devdoc": {
    "kind": "dev",
    "methods": {},
    "version": 1
  },
  "userdoc": {
    "kind": "user",
    "methods": {},
    "version": 1
  }
}