{
  "contractName": "Escrow",
  "abi": [
    {
      "inputs": [
        {
          "internalType": "address",
          "name": "_freelancer",
          "type": "address"
        },
        {
          "internalType": "address",
          "name": "_employer",
          "type": "address"
        },
        {
          "internalType": "uint256",
          "name": "_amount",
          "type": "uint256"
        }
      ],
      "stateMutability": "payable",
      "type": "constructor"
    },
    {
      "inputs": [],
      "name": "amount",
      "outputs": [
        {
          "internalType": "uint256",
          "name": "",
          "type": "uint256"
        }
      ],
      "stateMutability": "view",
      "type": "function"
    },
    {
      "inputs": [],
      "name": "employer",
      "outputs": [
        {
          "internalType": "address",
          "name": "",
          "type": "address"
        }
      ],
      "stateMutability": "view",
      "type": "function"
    },
    {
      "inputs": [],
      "name": "freelancer",
      "outputs": [
        {
          "internalType": "address",
          "name": "",
          "type": "address"
        }
      ],
      "stateMutability": "view",
      "type": "function"
    },
    {
      "inputs": [],
      "name": "releaseFunds",
      "outputs": [],
      "stateMutability": "nonpayable",
      "type": "function"
    }
  ],
  "bytecode": "0x60806040526040516102dc3803806102dc8339810160408190526020916072565b60008054600160a060020a03948516600160a060020a031991821617909155600180549390941692169190911790915560025560a9565b8051600160a060020a0381168114606d57600080fd5b919050565b600080600060608486031215608657600080fd5b608d846057565b92506099602085016057565b9150604084015190509250925092565b610224806100b86000396000f3fe608060405234801561001057600080fd5b5060043610610068577c0100000000000000000000000000000000000000000000000000000000600035046369d89575811461006d578063a37dda2c14610077578063aa8c217c146100c1578063ae200e79146100d8575b600080fd5b6100756100f8565b005b6000546100979073ffffffffffffffffffffffffffffffffffffffff1681565b60405173ffffffffffffffffffffffffffffffffffffffff90911681526020015b60405180910390f35b6100ca60025481565b6040519081526020016100b8565b6001546100979073ffffffffffffffffffffffffffffffffffffffff1681565b60015473ffffffffffffffffffffffffffffffffffffffff1633146101a3576040517f08c379a000000000000000000000000000000000000000000000000000000000815260206004820152602360248201527f4f6e6c792074686520656d706c6f7965722063616e2072656c6561736520667560448201527f6e64730000000000000000000000000000000000000000000000000000000000606482015260840160405180910390fd5b6000805460025460405173ffffffffffffffffffffffffffffffffffffffff9092169281156108fc029290818181858888f193505050501580156101eb573d6000803e3d6000fd5b5056fea2646970667358221220ac6d98b86d1b64ef5c54858337fc2368b5ad8d638a58bb3925f1c66753ddc7fc64736f6c63430008220033",
  "immutableReferences": {},
  "source": "// SPDX-License-Identifier: MIT\r\npragma solidity ^0.8.0;\r\n\r\nimport \"./Projects.sol\";\r\n\r\ncontract Escrow {\r\n    address public freelancer;\r\n    address public employer;\r\n    uint public amount;\r\n\r\n    constructor(address _freelancer, address _employer, uint _amount) payable {\r\n        freelancer = _freelancer;\r\n        employer = _employer;\r\n        amount = _amount;\r\n    }\r\n\r\n    function releaseFunds() external {\r\n        require(msg.sender == employer, \"Only the employer can release funds\");\r\n        payable(freelancer).transfer(amount);\r\n    }\r\n}\r\n\r\ncontract RequestManager {\r\n\r\n    Projects public projectsContract;\r\n\r\n    enum RequestStatus { Pending, Accepted, Rejected }\r\n\r\n    struct Request {\r\n        uint projectId;\r\n        address freelancer;\r\n        uint freelancerRating;\r\n        RequestStatus status;\r\n        Escrow escrowContract;\r\n    }\r\n\r\n    mapping(uint => Request) public requests;\r\n\r\n    event RequestSent(uint projectId, address freelancer);\r\n    event RequestAccepted(uint projectId, address freelancer, address escrowContract);\r\n    event RequestRejected(uint projectId, address freelancer);\r\n\r\n    constructor(address _projectsContract) {\r\n        projectsContract = Projects(_projectsContract);\r\n    }\r\n\r\n    function sendRequest(uint _projectId, uint _freelancerRating) public {\r\n        require(_projectId > 0 && _projectId <= projectsContract.projectCount(), \"Invalid project ID\");\r\n        (,, , , Projects.Status status, ) = projectsContract.getProject(_projectId);\r\n        require(status == Projects.Status.Open, \"Project is not open\");\r\n\r\n        requests[_projectId] = Request({\r\n            projectId: _projectId,\r\n            freelancer: msg.sender,\r\n            freelancerRating: _freelancerRating,\r\n            status: RequestStatus.Pending,\r\n            escrowContract: Escrow(address(0))\r\n        });\r\n\r\n        emit RequestSent(_projectId, msg.sender);\r\n    }\r\n\r\n    function acceptRequest(uint _projectId) public payable {\r\n        require(requests[_projectId].freelancer != address(0), \"No request exists for this project\");\r\n        require(requests[_projectId].status == RequestStatus.Pending, \"Request already processed\");\r\n\r\n        (, , , uint reward, Projects.Status status, address employer) = projectsContract.getProject(_projectId);\r\n        require(status == Projects.Status.Open, \"Project must be open\");\r\n        require(msg.sender == employer, \"Only the employer can accept this request\");\r\n        require(msg.value == reward, \"Incorrect reward amount sent\");\r\n\r\n        // Create new escrow contract instance with freelancer and employer details\r\n        Escrow escrow = new Escrow{value: reward}(requests[_projectId].freelancer, employer, reward);\r\n        requests[_projectId].escrowContract = escrow;\r\n\r\n        requests[_projectId].status = RequestStatus.Accepted;\r\n        emit RequestAccepted(_projectId, requests[_projectId].freelancer, address(escrow));\r\n    }\r\n\r\n    function rejectRequest(uint _projectId) public {\r\n        require(requests[_projectId].freelancer != address(0), \"No request exists for this project\");\r\n        require(requests[_projectId].status == RequestStatus.Pending, \"Request already processed\");\r\n\r\n        (, , , , Projects.Status status, address employer) = projectsContract.getProject(_projectId);\r\n        require(status == Projects.Status.Open, \"Project must be open\");\r\n        require(msg.sender == employer, \"Only the employer can reject this request\");\r\n\r\n        requests[_projectId].status = RequestStatus.Rejected;\r\n        emit RequestRejected(_projectId, requests[_projectId].freelancer);\r\n    }\r\n\r\n    function getRequest(uint _projectId) public view returns (Request memory) {\r\n        return requests[_projectId];\r\n    }\r\n}\r\n",
  "sourcePath": "C:\\Users\\malik\\OneDrive\\Desktop\\BTECH\\Final_year_project\\proj-2\\Delance\\contracts\\RequestManager.sol",
  "compiler": {
    "name": "solc",
    "version": "0.8.34+commit.80d5c536.Emscripten.clang"
  },
  "schemaVersion": "3.4.16",
  "updatedAt": "2026-02-27T02:46:01.324Z",
  "devdoc": {
    "kind": "dev",
    "methods": {},
    "version": 1
  },
  "userdoc": {
    "kind": "user",
    "methods": {},
    "version": 1
  }
}