{
  "contractName": "Projects",
  "abi": [
    {
      "anonymous": false,
      "inputs": [
        {
          "indexed": false,
          "internalType": "uint256",
          "name": "projectId",
          "type": "uint256"
        },
        {
          "indexed": false,
          "internalType": "uint256",
          "name": "milestoneId",
          "type": "uint256"
        },
        {
          "indexed": false,
          "internalType": "string",
          "name": "name",
          "type": "string"
        },
        {
          "indexed": false,
          "internalType": "uint256",
          "name": "percentage",
          "type": "uint256"
        }
      ],
      "name": "MilestoneAdded",
      "type": "event"
    },
    {
      "anonymous": false,
      "inputs": [
        {
          "indexed": false,
          "internalType": "uint256",
          "name": "id",
          "type": "uint256"
        },
        {
          "indexed": false,
          "internalType": "string",
          "name": "name",
          "type": "string"
        },
        {
          "indexed": false,
          "internalType": "address",
          "name": "employer",
          "type": "address"
        }
      ],
      "name": "ProjectAdded",
      "type": "event"
    },
    {
      "inputs": [],
      "name": "milestoneCount",
      "outputs": [
        {
          "internalType": "uint256",
          "name": "",
          "type": "uint256"
        }
      ],
      "stateMutability": "view",
      "type": "function"
    },
    {
      "inputs": [
        {
          "internalType": "uint256",
          "name": "",
          "type": "uint256"
        },
        {
          "internalType": "uint256",
          "name": "",
          "type": "uint256"
        }
      ],
      "name": "milestones",
      "outputs": [
        {
          "internalType": "uint256",
          "name": "id",
          "type": "uint256"
        },
        {
          "internalType": "uint256",
          "name": "projectId",
          "type": "uint256"
        },
        {
          "internalType": "string",
          "name": "name",
          "type": "string"
        },
        {
          "internalType": "string",
          "name": "description",
          "type": "string"
        },
        {
          "internalType": "uint256",
          "name": "daycount",
          "type": "uint256"
        },
        {
          "internalType": "uint256",
          "name": "percentage",
          "type": "uint256"
        },
        {
          "internalType": "bool",
          "name": "completed",
          "type": "bool"
        }
      ],
      "stateMutability": "view",
      "type": "function"
    },
    {
      "inputs": [],
      "name": "projectCount",
      "outputs": [
        {
          "internalType": "uint256",
          "name": "",
          "type": "uint256"
        }
      ],
      "stateMutability": "view",
      "type": "function"
    },
    {
      "inputs": [
        {
          "internalType": "uint256",
          "name": "",
          "type": "uint256"
        }
      ],
      "name": "projects",
      "outputs": [
        {
          "internalType": "uint256",
          "name": "id",
          "type": "uint256"
        },
        {
          "internalType": "string",
          "name": "name",
          "type": "string"
        },
        {
          "internalType": "string",
          "name": "description",
          "type": "string"
        },
        {
          "internalType": "uint256",
          "name": "reward",
          "type": "uint256"
        },
        {
          "internalType": "enum Projects.Status",
          "name": "status",
          "type": "uint8"
        },
        {
          "internalType": "address",
          "name": "employer",
          "type": "address"
        }
      ],
      "stateMutability": "view",
      "type": "function"
    },
    {
      "inputs": [
        {
          "internalType": "string",
          "name": "_name",
          "type": "string"
        },
        {
          "internalType": "string",
          "name": "_description",
          "type": "string"
        },
        {
          "internalType": "uint256",
          "name": "_reward",
          "type": "uint256"
        }
      ],
      "name": "addProject",
      "outputs": [],
      "stateMutability": "nonpayable",
      "type": "function"
    },
    {
      "inputs": [
        {
          "internalType": "uint256",
          "name": "_projectId",
          "type": "uint256"
        },
        {
          "internalType": "string",
          "name": "_name",
          "type": "string"
        },
        {
          "internalType": "string",
          "name": "_description",
          "type": "string"
        },
        {
          "internalType": "uint256",
          "name": "_daycount",
          "type": "uint256"
        },
        {
          "internalType": "uint256",
          "name": "_percentage",
          "type": "uint256"
        }
      ],
      "name": "addMilestone",
      "outputs": [],
      "stateMutability": "nonpayable",
      "type": "function"
    },
    {
      "inputs": [
        {
          "internalType": "uint256",
          "name": "_id",
          "type": "uint256"
        }
      ],
      "name": "getProject",
      "outputs": [
        {
          "internalType": "uint256",
          "name": "",
          "type": "uint256"
        },
        {
          "internalType": "string",
          "name": "",
          "type": "string"
        },
        {
          "internalType": "string",
          "name": "",
          "type": "string"
        },
        {
          "internalType": "uint256",
          "name": "",
          "type": "uint256"
        },
        {
          "internalType": "enum Projects.Status",
          "name": "",
          "type": "uint8"
        },
        {
          "internalType": "address",
          "name": "",
          "type": "address"
        }
      ],
      "stateMutability": "view",
      "type": "function"
    },
    {
      "inputs": [],
      "name": "viewProjects",
      "outputs": [
        {
          "internalType": "uint256[]",
          "name": "ids",
          "type": "uint256[]"
        },
        {
          "internalType": "string[]",
          "name": "names",
          "type": "string[]"
        },
        {
          "internalType": "string[]",
          "name": "descriptions",
          "type": "string[]"
        },
        {
          "internalType": "uint256[]",
          "name": "rewards",
          "type": "uint256[]"
        },
        {
          "internalType": "enum Projects.Status[]",
          "name": "statuses",
          "type": "uint8[]"
        },
        {
          "internalType": "address[]",
          "name": "employers",
          "type": "address[]"
        }
      ],
      "stateMutability": "view",
      "type": "function"
    },
    {
      "inputs": [],
      "name": "viewOpenProjects",
      "outputs": [
        {
          "internalType": "uint256[]",
          "name": "ids",
          "type": "uint256[]"
        },
        {
          "internalType": "string[]",
          "name": "names",
          "type": "string[]"
        },
        {
          "internalType": "string[]",
          "name": "descriptions",
          "type": "string[]"
        },
        {
          "internalType": "uint256[]",
          "name": "rewards",
          "type": "uint256[]"
        },
        {
          "internalType": "enum Projects.Status[]",
          "name": "statuses",
          "type": "uint8[]"
        },
        {
          "internalType": "address[]",
          "name": "employers",
          "type": "address[]"
        }
      ],
      "stateMutability": "view",
      "type": "function"
    },
    {
      "inputs": [
        {
          "internalType": "uint256",
          "name": "_projectId",
          "type": "uint256"
        }
      ],
      "name": "getMilestones",
      "outputs": [
        {
          "internalType": "uint256[]",
          "name": "ids",
          "type": "uint256[]"
        },
        {
          "internalType": "string[]",
          "name": "names",
          "type": "string[]"
        },
        {
          "internalType": "string[]",
          "name": "descriptions",
          "type": "string[]"
        },
        {
          "internalType": "uint256[]",
          "name": "daycounts",
          "type": "uint256[]"
        },
        {
          "internalType": "uint256[]",
          "name": "percentages",
          "type": "uint256[]"
        },
        {
          "internalType": "bool[]",
          "name": "completions",
          "type": "bool[]"
        }
      ],
      "stateMutability": "view",
      "type": "function"
    },
    {
      "inputs": [
        {
          "internalType": "uint256",
          "name": "_id",
          "type": "uint256"
        }
      ],
      "name": "closeProject",
      "outputs": [],
      "stateMutability": "nonpayable",
      "type": "function"
    },
    {
      "inputs": [
        {
          "internalType": "uint256",
          "name": "_projectId",
          "type": "uint256"
        },
        {
          "internalType": "uint256",
          "name": "_milestoneId",
          "type": "uint256"
        }
      ],
      "name": "completeMilestone",
      "outputs": [],
      "stateMutability": "nonpayable",
      "type": "function"
    }
  ],
  "bytecode": "0x6080604052348015600f57600080fd5b506122018061001f6000396000f3fe608060405234801561001057600080fd5b50600436106100d1576000357c01000000000000000000000000000000000000000000000000000000009004806353eef0601161008e57806353eef06014610185578063563700d51461018d5780635fd4f758146101a257806393dc12e6146101b5578063f0f3f2c8146101c8578063f326206b146101db57600080fd5b80630681ca55146100d6578063107046bd146100f25780631c376c6314610117578063310f94111461013d57806336fbad261461015757806342c549c014610160575b600080fd5b6100df60035481565b6040519081526020015b60405180910390f35b610105610100366004611a32565b6101ee565b6040516100e996959493929190611acf565b61012a610125366004611b2a565b610340565b6040516100e99796959493929190611b4c565b6101456104b4565b6040516100e996959493929190611c71565b6100df60025481565b61017361016e366004611a32565b61090d565b6040516100e996959493929190611d21565b610145610d4b565b6101a061019b366004611e75565b6111fe565b005b6101a06101b0366004611ef9565b61143d565b6101a06101c3366004611a32565b61157e565b6101056101d6366004611a32565b611655565b6101a06101e9366004611b2a565b611862565b6000602081905290815260409020805460018201805491929161021090611f6c565b80601f016020809104026020016040519081016040528092919081815260200182805461023c90611f6c565b80156102895780601f1061025e57610100808354040283529160200191610289565b820191906000526020600020905b81548152906001019060200180831161026c57829003601f168201915b50505050509080600201805461029e90611f6c565b80601f01602080910402602001604051908101604052809291908181526020018280546102ca90611f6c565b80156103175780601f106102ec57610100808354040283529160200191610317565b820191906000526020600020905b8154815290600101906020018083116102fa57829003601f168201915b50505050600383015460049093015491929160ff811691506101009004600160a060020a031686565b6001602052816000526040600020818154811061035c57600080fd5b90600052602060002090600702016000915091505080600001549080600101549080600201805461038c90611f6c565b80601f01602080910402602001604051908101604052809291908181526020018280546103b890611f6c565b80156104055780601f106103da57610100808354040283529160200191610405565b820191906000526020600020905b8154815290600101906020018083116103e857829003601f168201915b50505050509080600301805461041a90611f6c565b80601f016020809104026020016040519081016040528092919081815260200182805461044690611f6c565b80156104935780601f1061046857610100808354040283529160200191610493565b820191906000526020600020905b81548152906001019060200180831161047657829003601f168201915b50505050600483015460058401546006909401549293909290915060ff1687565b60608060608060608060025467ffffffffffffffff8111156104d8576104d8611dcd565b604051908082528060200260200182016040528015610501578160200160208202803683370190505b50955060025467ffffffffffffffff81111561051f5761051f611dcd565b60405190808252806020026020018201604052801561055257816020015b606081526020019060019003908161053d5790505b50945060025467ffffffffffffffff81111561057057610570611dcd565b6040519080825280602002602001820160405280156105a357816020015b606081526020019060019003908161058e5790505b50935060025467ffffffffffffffff8111156105c1576105c1611dcd565b6040519080825280602002602001820160405280156105ea578160200160208202803683370190505b50925060025467ffffffffffffffff81111561060857610608611dcd565b604051908082528060200260200182016040528015610631578160200160208202803683370190505b50915060025467ffffffffffffffff81111561064f5761064f611dcd565b604051908082528060200260200182016040528015610678578160200160208202803683370190505b50905060015b60025481116109045760008181526020819052604090208054886106a3600185611fc2565b815181106106b3576106b3611fdb565b6020026020010181815250508060010180546106ce90611f6c565b80601f01602080910402602001604051908101604052809291908181526020018280546106fa90611f6c565b80156107475780601f1061071c57610100808354040283529160200191610747565b820191906000526020600020905b81548152906001019060200180831161072a57829003601f168201915b50505050508760018461075a9190611fc2565b8151811061076a5761076a611fdb565b602002602001018190525080600201805461078490611f6c565b80601f01602080910402602001604051908101604052809291908181526020018280546107b090611f6c565b80156107fd5780601f106107d2576101008083540402835291602001916107fd565b820191906000526020600020905b8154815290600101906020018083116107e057829003601f168201915b5050505050866001846108109190611fc2565b8151811061082057610820611fdb565b602090810291909101015260038101548561083c600185611fc2565b8151811061084c5761084c611fdb565b6020908102919091010152600481015460ff168461086b600185611fc2565b8151811061087b5761087b611fdb565b6020026020010190600181111561089457610894611a91565b908160018111156108a7576108a7611a91565b90525060048101546101009004600160a060020a0316836108c9600185611fc2565b815181106108d9576108d9611fdb565b600160a060020a039092166020928302919091019091015250806108fc81611ff4565b91505061067e565b50909192939495565b60608060608060608060008711801561092857506002548711155b6109505760405160e560020a62461bcd0281526004016109479061200d565b60405180910390fd5b6000878152600160205260409020548067ffffffffffffffff81111561097857610978611dcd565b6040519080825280602002602001820160405280156109a1578160200160208202803683370190505b5096508067ffffffffffffffff8111156109bd576109bd611dcd565b6040519080825280602002602001820160405280156109f057816020015b60608152602001906001900390816109db5790505b5095508067ffffffffffffffff811115610a0c57610a0c611dcd565b604051908082528060200260200182016040528015610a3f57816020015b6060815260200190600190039081610a2a5790505b5094508067ffffffffffffffff811115610a5b57610a5b611dcd565b604051908082528060200260200182016040528015610a84578160200160208202803683370190505b5093508067ffffffffffffffff811115610aa057610aa0611dcd565b604051908082528060200260200182016040528015610ac9578160200160208202803683370190505b5092508067ffffffffffffffff811115610ae557610ae5611dcd565b604051908082528060200260200182016040528015610b0e578160200160208202803683370190505b50915060005b81811015610d40576000898152600160205260408120805483908110610b3c57610b3c611fdb565b906000526020600020906007020190508060000154898381518110610b6357610b63611fdb565b602002602001018181525050806002018054610b7e90611f6c565b80601f0160208091040260200160405190810160405280929190818152602001828054610baa90611f6c565b8015610bf75780601f10610bcc57610100808354040283529160200191610bf7565b820191906000526020600020905b815481529060010190602001808311610bda57829003601f168201915b5050505050888381518110610c0e57610c0e611fdb565b6020026020010181905250806003018054610c2890611f6c565b80601f0160208091040260200160405190810160405280929190818152602001828054610c5490611f6c565b8015610ca15780601f10610c7657610100808354040283529160200191610ca1565b820191906000526020600020905b815481529060010190602001808311610c8457829003601f168201915b5050505050878381518110610cb857610cb8611fdb565b60200260200101819052508060040154868381518110610cda57610cda611fdb565b6020026020010181815250508060050154858381518110610cfd57610cfd611fdb565b60209081029190910101526006810154845160ff90911690859084908110610d2757610d27611fdb565b9115156020928302919091019091015250600101610b14565b505091939550919395565b60608080808080600060015b6002548111610dad57600160008281526020819052604090206004015460ff166001811115610d8857610d88611a91565b03610d9b5781610d9781611ff4565b9250505b80610da581611ff4565b915050610d57565b508067ffffffffffffffff811115610dc757610dc7611dcd565b604051908082528060200260200182016040528015610df0578160200160208202803683370190505b5096508067ffffffffffffffff811115610e0c57610e0c611dcd565b604051908082528060200260200182016040528015610e3f57816020015b6060815260200190600190039081610e2a5790505b5095508067ffffffffffffffff811115610e5b57610e5b611dcd565b604051908082528060200260200182016040528015610e8e57816020015b6060815260200190600190039081610e795790505b5094508067ffffffffffffffff811115610eaa57610eaa611dcd565b604051908082528060200260200182016040528015610ed3578160200160208202803683370190505b5093508067ffffffffffffffff811115610eef57610eef611dcd565b604051908082528060200260200182016040528015610f18578160200160208202803683370190505b5092508067ffffffffffffffff811115610f3457610f34611dcd565b604051908082528060200260200182016040528015610f5d578160200160208202803683370190505b509150600060015b60025481116111f357600160008281526020819052604090206004015460ff166001811115610f9657610f96611a91565b036111e157600081815260208190526040902080548a518b9085908110610fbf57610fbf611fdb565b602002602001018181525050806001018054610fda90611f6c565b80601f016020809104026020016040519081016040528092919081815260200182805461100690611f6c565b80156110535780601f1061102857610100808354040283529160200191611053565b820191906000526020600020905b81548152906001019060200180831161103657829003601f168201915b505050505089848151811061106a5761106a611fdb565b602002602001018190525080600201805461108490611f6c565b80601f01602080910402602001604051908101604052809291908181526020018280546110b090611f6c565b80156110fd5780601f106110d2576101008083540402835291602001916110fd565b820191906000526020600020905b8154815290600101906020018083116110e057829003601f168201915b505050505088848151811061111457611114611fdb565b6020026020010181905250806003015487848151811061113657611136611fdb565b60209081029190910101526004810154865160ff9091169087908590811061116057611160611fdb565b6020026020010190600181111561117957611179611a91565b9081600181111561118c5761118c611a91565b815250508060040160019054906101000a9004600160a060020a03168584815181106111ba576111ba611fdb565b600160a060020a0390921660209283029190910190910152826111dc81611ff4565b935050505b806111eb81611ff4565b915050610f65565b505050909192939495565b60008511801561121057506002548511155b61122f5760405160e560020a62461bcd0281526004016109479061200d565b6000858152602081905260409020600401546101009004600160a060020a031633146112c55760405160e560020a62461bcd028152602060048201526024808201527f4f6e6c792074686520656d706c6f7965722063616e20616464206d696c65737460448201527f6f6e6573000000000000000000000000000000000000000000000000000000006064820152608401610947565b6000811180156112d6575060648111155b6113255760405160e560020a62461bcd02815260206004820152601260248201527f496e76616c69642070657263656e7461676500000000000000000000000000006044820152606401610947565b6003805490600061133583611ff4565b90915550506000858152600160208181526040808420815160e08101835260035481528084018b81529281018a8152606082018a90526080820189905260a0820188905260c08201879052825480870184559287529390952085516007909202019081559051928101929092555160028201906113b290826120a0565b50606082015160038201906113c790826120a0565b506080820151600482015560a0820151600582015560c0909101516006909101805460ff19169115159190911790556003546040517fc67423104bf96f5ca8826913ae711e8c2254e1b2c04af907b2312853ed4cbed29161142e9188919088908690612169565b60405180910390a15050505050565b6002805490600061144d83611ff4565b91905055506040518060c00160405280600254815260200184815260200183815260200182815260200160018081111561148957611489611a91565b815233602091820152600254600090815280825260409020825181559082015160018201906114b890826120a0565b50604082015160028201906114cd90826120a0565b5060608201516003820155608082015160048201805460ff1916600183818111156114fa576114fa611a91565b021790555060a0919091015160049091018054600160a060020a039092166101000274ffffffffffffffffffffffffffffffffffffffff00199092169190911790556002546040517f0c37be42d09c868de3d7b2154026972d847472b2d254f8f2f6a8f1be3a450e6a916115719186903390612199565b60405180910390a1505050565b60008111801561159057506002548111155b6115af5760405160e560020a62461bcd0281526004016109479061200d565b600081815260208190526040902060048101546101009004600160a060020a031633146116475760405160e560020a62461bcd02815260206004820152602860248201527f4f6e6c792074686520656d706c6f7965722063616e20636c6f7365207468697360448201527f2070726f6a6563740000000000000000000000000000000000000000000000006064820152608401610947565b600401805460ff1916905550565b60006060806000806000808711801561167057506002548711155b61168f5760405160e560020a62461bcd0281526004016109479061200d565b60008060008981526020019081526020016000206040518060c0016040529081600082015481526020016001820180546116c890611f6c565b80601f01602080910402602001604051908101604052809291908181526020018280546116f490611f6c565b80156117415780601f1061171657610100808354040283529160200191611741565b820191906000526020600020905b81548152906001019060200180831161172457829003601f168201915b5050505050815260200160028201805461175a90611f6c565b80601f016020809104026020016040519081016040528092919081815260200182805461178690611f6c565b80156117d35780601f106117a8576101008083540402835291602001916117d3565b820191906000526020600020905b8154815290600101906020018083116117b657829003601f168201915b505050918352505060038201546020820152600482015460409091019060ff16600181111561180457611804611a91565b600181111561181557611815611a91565b8152600491909101546101009004600160a060020a031660209182015281519082015160408301516060840151608085015160a090950151939d929c50909a509850919650945092505050565b60008211801561187457506002548211155b6118935760405160e560020a62461bcd0281526004016109479061200d565b6000828152602081905260409020600401546101009004600160a060020a0316331461192a5760405160e560020a62461bcd02815260206004820152603260248201527f4f6e6c792074686520656d706c6f7965722063616e206d61726b206d696c657360448201527f746f6e657320617320636f6d706c6574656400000000000000000000000000006064820152608401610947565b600082815260016020526040812090805b82548110156119b5578383828154811061195757611957611fdb565b906000526020600020906007020160000154036119ad57600183828154811061198257611982611fdb565b60009182526020909120600790910201600601805460ff1916911515919091179055600191506119b5565b60010161193b565b5080611a2c5760405160e560020a62461bcd02815260206004820152602860248201527f4d696c6573746f6e6520646f6573206e6f7420657869737420696e207468697360448201527f2070726f6a6563740000000000000000000000000000000000000000000000006064820152608401610947565b50505050565b600060208284031215611a4457600080fd5b5035919050565b6000815180845260005b81811015611a7157602081850181015186830182015201611a55565b506000602082860101526020601f19601f83011685010191505092915050565b60e060020a634e487b7102600052602160045260246000fd5b60028110611acb5760e060020a634e487b7102600052602160045260246000fd5b9052565b86815260c060208201526000611ae860c0830188611a4b565b8281036040840152611afa8188611a4b565b915050846060830152611b106080830185611aaa565b600160a060020a03831660a0830152979650505050505050565b60008060408385031215611b3d57600080fd5b50508035926020909101359150565b87815286602082015260e060408201526000611b6b60e0830188611a4b565b8281036060840152611b7d8188611a4b565b6080840196909652505060a0810192909252151560c090910152949350505050565b600081518084526020840193506020830160005b82811015611bd1578151865260209586019590910190600101611bb3565b5093949350505050565b600082825180855260208501945060208082028301016020850160005b83811015611c2a57601f19858403018852611c14838351611a4b565b6020988901989093509190910190600101611bf8565b50909695505050505050565b600081518084526020840193506020830160005b82811015611bd1578151600160a060020a0316865260209586019590910190600101611c4a565b60c081526000611c8460c0830189611b9f565b8281036020840152611c968189611bdb565b90508281036040840152611caa8188611bdb565b90508281036060840152611cbe8187611b9f565b83810360808501528551808252602080880193509091019060005b81811015611cff57611cec838551611aaa565b6020938401939290920191600101611cd9565b505083810360a0850152611d138186611c36565b9a9950505050505050505050565b60c081526000611d3460c0830189611b9f565b8281036020840152611d468189611bdb565b90508281036040840152611d5a8188611bdb565b90508281036060840152611d6e8187611b9f565b90508281036080840152611d828186611b9f565b83810360a08501528451808252602080870193509091019060005b81811015611dbd5783511515835260209384019390920191600101611d9d565b50909a9950505050505050505050565b60e060020a634e487b7102600052604160045260246000fd5b600082601f830112611df757600080fd5b813567ffffffffffffffff811115611e1157611e11611dcd565b604051601f8201601f19908116603f0116810167ffffffffffffffff81118282101715611e4057611e40611dcd565b604052818152838201602001851015611e5857600080fd5b816020850160208301376000918101602001919091529392505050565b600080600080600060a08688031215611e8d57600080fd5b85359450602086013567ffffffffffffffff811115611eab57600080fd5b611eb788828901611de6565b945050604086013567ffffffffffffffff811115611ed457600080fd5b611ee088828901611de6565b9598949750949560608101359550608001359392505050565b600080600060608486031215611f0e57600080fd5b833567ffffffffffffffff811115611f2557600080fd5b611f3186828701611de6565b935050602084013567ffffffffffffffff811115611f4e57600080fd5b611f5a86828701611de6565b93969395505050506040919091013590565b600281046001821680611f8057607f821691505b602082108103611fa35760e060020a634e487b7102600052602260045260246000fd5b50919050565b60e060020a634e487b7102600052601160045260246000fd5b81810381811115611fd557611fd5611fa9565b92915050565b60e060020a634e487b7102600052603260045260246000fd5b60006001820161200657612006611fa9565b5060010190565b60208082526016908201527f50726f6a65637420646f6573206e6f7420657869737400000000000000000000604082015260600190565b601f82111561209b578282111561209b578060005260206000206020601f8501046020851015612072575060005b908101906020601f8501040360005b8181101561209757600083820155600101612081565b5050505b505050565b815167ffffffffffffffff8111156120ba576120ba611dcd565b6120ce816120c88454611f6c565b84612044565b6020601f82116001811461210657600083156120ea5750848201515b60088402600290810a6000190419821690850217855550612162565b600084815260208120601f198516915b828110156121365787850151825560209485019460019092019101612116565b50848210156121565783870151601f861660080260020a60001904191681555b50506001600284020184555b5050505050565b8481528360208201526080604082015260006121886080830185611a4b565b905082606083015295945050505050565b8381526060602082015260006121b26060830185611a4b565b9050600160a060020a038316604083015294935050505056fea2646970667358221220b4d6e28f2ca5fb63e3171fdff3fc2e2efc21db3bb0854a13b2011a49ceaaaa7a64736f6c63430008220033",
  "immutableReferences": {},
  "source": "// SPDX-License-Identifier: MIT\r\npragma solidity >=0.8.7;\r\n\r\ncontract Projects {\r\n    \r\n    enum Status { Closed, Open }\r\n\r\n    struct Project {\r\n        uint id;\r\n        string name;\r\n        string description;\r\n        uint reward;\r\n        Status status;\r\n        address employer;\r\n    }\r\n\r\n    struct Milestone {\r\n        uint id;\r\n        uint projectId;\r\n        string name;\r\n        string description;\r\n        uint daycount;\r\n        uint percentage;\r\n        bool completed;\r\n    }\r\n\r\n    mapping(uint => Project) public projects;\r\n    mapping(uint => Milestone[]) public milestones;\r\n\r\n    uint public projectCount;\r\n    uint public milestoneCount;\r\n\r\n    event ProjectAdded(uint id, string name, address employer);\r\n    event MilestoneAdded(uint projectId, uint milestoneId, string name, uint percentage);\r\n\r\n    function addProject(string memory _name, string memory _description, uint _reward) public {\r\n        projectCount++;\r\n        projects[projectCount] = Project({\r\n            id: projectCount,\r\n            name: _name,\r\n            description: _description,\r\n            reward: _reward,\r\n            status: Status.Open,\r\n            employer: msg.sender\r\n        });\r\n\r\n        emit ProjectAdded(projectCount, _name, msg.sender);\r\n    }\r\n\r\n    function addMilestone(uint _projectId, string memory _name, string memory _description, uint _daycount, uint _percentage) public {\r\n        require(_projectId > 0 && _projectId <= projectCount, \"Project does not exist\");\r\n        require(msg.sender == projects[_projectId].employer, \"Only the employer can add milestones\");\r\n        require(_percentage > 0 && _percentage <= 100, \"Invalid percentage\");\r\n\r\n        milestoneCount++;\r\n        milestones[_projectId].push(Milestone({\r\n            id: milestoneCount,\r\n            projectId: _projectId,\r\n            name: _name,\r\n            description: _description,\r\n            daycount: _daycount,\r\n            percentage: _percentage,\r\n            completed: false\r\n        }));\r\n\r\n        emit MilestoneAdded(_projectId, milestoneCount, _name, _percentage);\r\n    }\r\n\r\n    function getProject(uint _id) public view returns (uint, string memory, string memory, uint, Status, address) {\r\n        require(_id > 0 && _id <= projectCount, \"Project does not exist\");\r\n        Project memory proj = projects[_id];\r\n        return (proj.id, proj.name, proj.description, proj.reward, proj.status, proj.employer);\r\n    }\r\n\r\n    function viewProjects() public view returns (\r\n        uint[] memory ids, \r\n        string[] memory names, \r\n        string[] memory descriptions, \r\n        uint[] memory rewards, \r\n        Status[] memory statuses, \r\n        address[] memory employers\r\n    ) {\r\n        ids = new uint[](projectCount);\r\n        names = new string[](projectCount);\r\n        descriptions = new string[](projectCount);\r\n        rewards = new uint[](projectCount);\r\n        statuses = new Status[](projectCount);\r\n        employers = new address[](projectCount);\r\n\r\n        for (uint i = 1; i <= projectCount; i++) {\r\n            Project storage proj = projects[i];\r\n            ids[i - 1] = proj.id;\r\n            names[i - 1] = proj.name;\r\n            descriptions[i - 1] = proj.description;\r\n            rewards[i - 1] = proj.reward;\r\n            statuses[i - 1] = proj.status;\r\n            employers[i - 1] = proj.employer;\r\n        }\r\n\r\n        return (ids, names, descriptions, rewards, statuses, employers);\r\n    }\r\n\r\n    function viewOpenProjects() public view returns (\r\n        uint[] memory ids, \r\n        string[] memory names, \r\n        string[] memory descriptions, \r\n        uint[] memory rewards, \r\n        Status[] memory statuses, \r\n        address[] memory employers\r\n    ) {\r\n        uint openCount = 0;\r\n        for (uint i = 1; i <= projectCount; i++) {\r\n            if (projects[i].status == Status.Open) {\r\n                openCount++;\r\n            }\r\n        }\r\n\r\n        ids = new uint[](openCount);\r\n        names = new string[](openCount);\r\n        descriptions = new string[](openCount);\r\n        rewards = new uint[](openCount);\r\n        statuses = new Status[](openCount);\r\n        employers = new address[](openCount);\r\n\r\n        uint index = 0;\r\n        for (uint i = 1; i <= projectCount; i++) {\r\n            if (projects[i].status == Status.Open) {\r\n                Project storage proj = projects[i];\r\n                ids[index] = proj.id;\r\n                names[index] = proj.name;\r\n                descriptions[index] = proj.description;\r\n                rewards[index] = proj.reward;\r\n                statuses[index] = proj.status;\r\n                employers[index] = proj.employer;\r\n                index++;\r\n            }\r\n        }\r\n\r\n        return (ids, names, descriptions, rewards, statuses, employers);\r\n    }\r\n\r\nfunction getMilestones(uint _projectId) public view returns (\r\n    uint[] memory ids,\r\n    string[] memory names,\r\n    string[] memory descriptions,\r\n    uint[] memory daycounts,\r\n    uint[] memory percentages,\r\n    bool[] memory completions\r\n) {\r\n    require(_projectId > 0 && _projectId <= projectCount, \"Project does not exist\");\r\n    uint milestoneLength = milestones[_projectId].length;\r\n\r\n    ids = new uint[](milestoneLength);\r\n    names = new string[](milestoneLength);\r\n    descriptions = new string[](milestoneLength);\r\n    daycounts = new uint[](milestoneLength);\r\n    percentages = new uint[](milestoneLength);\r\n    completions = new bool[](milestoneLength);\r\n\r\n    for (uint i = 0; i < milestoneLength; i++) {\r\n        Milestone storage milestone = milestones[_projectId][i];\r\n        ids[i] = milestone.id;\r\n        names[i] = milestone.name;\r\n        descriptions[i] = milestone.description;\r\n        daycounts[i] = milestone.daycount;\r\n        percentages[i] = milestone.percentage;\r\n        completions[i] = milestone.completed;\r\n    }\r\n}\r\n\r\n\r\n    function closeProject(uint _id) public {\r\n        require(_id > 0 && _id <= projectCount, \"Project does not exist\");\r\n        Project storage proj = projects[_id];\r\n        require(msg.sender == proj.employer, \"Only the employer can close this project\");\r\n        proj.status = Status.Closed;\r\n    }\r\n\r\n    function completeMilestone(uint _projectId, uint _milestoneId) public {\r\n        require(_projectId > 0 && _projectId <= projectCount, \"Project does not exist\");\r\n        require(msg.sender == projects[_projectId].employer, \"Only the employer can mark milestones as completed\");\r\n\r\n        Milestone[] storage projectMilestones = milestones[_projectId];\r\n        bool found = false;\r\n\r\n        for (uint i = 0; i < projectMilestones.length; i++) {\r\n            if (projectMilestones[i].id == _milestoneId) {\r\n                projectMilestones[i].completed = true;\r\n                found = true;\r\n                break;\r\n            }\r\n        }\r\n\r\n        require(found, \"Milestone does not exist in this project\");\r\n    }\r\n}\r\n",
  "sourcePath": "C:\\Users\\malik\\OneDrive\\Desktop\\BTECH\\Final_year_project\\proj-2\\Delance\\contracts\\Projects.sol",
  "compiler": {
    "name": "solc",
    "version": "0.8.34+commit.80d5c536.Emscripten.clang"
  },
  "schemaVersion": "3.4.16",
  "updatedAt": "2026-02-27T02:46:01.304Z",
  "devdoc": {
    "kind": "dev",
    "methods": {},
    "version": 1
  },
  "userdoc": {
    "kind": "user",
    "methods": {},
    "version": 1
  }
}