{
  "contractName": "RequestManager",
  "abi": [
    {
      "inputs": [
        {
          "internalType": "address",
          "name": "_projectsContract",
          "type": "address"
        }
      ],
      "stateMutability": "nonpayable",
      "type": "constructor"
    },
    {
      "anonymous": false,
      "inputs": [
        {
          "indexed": false,
          "internalType": "uint256",
          "name": "projectId",
          "type": "uint256"
        },
        {
          "indexed": false,
          "internalType": "address",
          "name": "freelancer",
          "type": "address"
        },
        {
          "indexed": false,
          "internalType": "address",
          "name": "escrowContract",
          "type": "address"
        }
      ],
      "name": "RequestAccepted",
      "type": "event"
    },
    {
      "anonymous": false,
      "inputs": [
        {
          "indexed": false,
          "internalType": "uint256",
          "name": "projectId",
          "type": "uint256"
        },
        {
          "indexed": false,
          "internalType": "address",
          "name": "freelancer",
          "type": "address"
        }
      ],
      "name": "RequestRejected",
      "type": "event"
    },
    {
      "anonymous": false,
      "inputs": [
        {
          "indexed": false,
          "internalType": "uint256",
          "name": "projectId",
          "type": "uint256"
        },
        {
          "indexed": false,
          "internalType": "address",
          "name": "freelancer",
          "type": "address"
        }
      ],
      "name": "RequestSent",
      "type": "event"
    },
    {
      "inputs": [],
      "name": "projectsContract",
      "outputs": [
        {
          "internalType": "contract Projects",
          "name": "",
          "type": "address"
        }
      ],
      "stateMutability": "view",
      "type": "function"
    },
    {
      "inputs": [
        {
          "internalType": "uint256",
          "name": "",
          "type": "uint256"
        }
      ],
      "name": "requests",
      "outputs": [
        {
          "internalType": "uint256",
          "name": "projectId",
          "type": "uint256"
        },
        {
          "internalType": "address",
          "name": "freelancer",
          "type": "address"
        },
        {
          "internalType": "uint256",
          "name": "freelancerRating",
          "type": "uint256"
        },
        {
          "internalType": "enum RequestManager.RequestStatus",
          "name": "status",
          "type": "uint8"
        },
        {
          "internalType": "contract Escrow",
          "name": "escrowContract",
          "type": "address"
        }
      ],
      "stateMutability": "view",
      "type": "function"
    },
    {
      "inputs": [
        {
          "internalType": "uint256",
          "name": "_projectId",
          "type": "uint256"
        },
        {
          "internalType": "uint256",
          "name": "_freelancerRating",
          "type": "uint256"
        }
      ],
      "name": "sendRequest",
      "outputs": [],
      "stateMutability": "nonpayable",
      "type": "function"
    },
    {
      "inputs": [
        {
          "internalType": "uint256",
          "name": "_projectId",
          "type": "uint256"
        }
      ],
      "name": "acceptRequest",
      "outputs": [],
      "stateMutability": "payable",
      "type": "function"
    },
    {
      "inputs": [
        {
          "internalType": "uint256",
          "name": "_projectId",
          "type": "uint256"
        }
      ],
      "name": "rejectRequest",
      "outputs": [],
      "stateMutability": "nonpayable",
      "type": "function"
    },
    {
      "inputs": [
        {
          "internalType": "uint256",
          "name": "_projectId",
          "type": "uint256"
        }
      ],
      "name": "getRequest",
      "outputs": [
        {
          "components": [
            {
              "internalType": "uint256",
              "name": "projectId",
              "type": "uint256"
            },
            {
              "internalType": "address",
              "name": "freelancer",
              "type": "address"
            },
            {
              "internalType": "uint256",
              "name": "freelancerRating",
              "type": "uint256"
            },
            {
              "internalType": "enum RequestManager.RequestStatus",
              "name": "status",
              "type": "uint8"
            },
            {
              "internalType": "contract Escrow",
              "name": "escrowContract",
              "type": "address"
            }
          ],
          "internalType": "struct RequestManager.Request",
          "name": "",
          "type": "tuple"
        }
      ],
      "stateMutability": "view",
      "type": "function"
    }
  ],
  "bytecode": "0x6080604052348015600f57600080fd5b5060405161127c38038061127c833981016040819052602c916050565b60008054600160a060020a031916600160a060020a0392909216919091179055607e565b600060208284031215606157600080fd5b8151600160a060020a0381168114607757600080fd5b9392505050565b6111ef8061008d6000396000f3fe608060405260043610610071577c010000000000000000000000000000000000000000000000000000000060003504632d7788db81146100765780634ba1f098146100985780634bd335b8146100ab57806381d12c58146100e8578063b3db5c9414610151578063c58343ef14610171575b600080fd5b34801561008257600080fd5b50610096610091366004610ba2565b61019e565b005b6100966100a6366004610ba2565b610445565b3480156100b757600080fd5b506000546100cb90600160a060020a031681565b604051600160a060020a0390911681526020015b60405180910390f35b3480156100f457600080fd5b50610140610103366004610ba2565b60016020819052600091825260409091208054918101546002820154600390920154600160a060020a03918216929160ff82169161010090041685565b6040516100df959493929190610c25565b34801561015d57600080fd5b5061009661016c366004610c68565b6107d5565b34801561017d57600080fd5b5061019161018c366004610ba2565b610ada565b6040516100df9190610c8a565b60008181526001602081905260409091200154600160a060020a03166101e25760405160e560020a62461bcd0281526004016101d990610cdd565b60405180910390fd5b60008181526001602052604081206003015460ff16600281111561020857610208610bbb565b146102585760405160e560020a62461bcd02815260206004820152601960248201527f5265717565737420616c72656164792070726f6365737365640000000000000060448201526064016101d9565b600080546040517ff0f3f2c8000000000000000000000000000000000000000000000000000000008152600481018490528291600160a060020a03169063f0f3f2c890602401600060405180830381865afa1580156102bb573d6000803e3d6000fd5b505050506040513d6000823e601f3d908101601f191682016040526102e39190810190610e0e565b9096509450600193506102f592505050565b82600181111561030757610307610bbb565b146103575760405160e560020a62461bcd02815260206004820152601460248201527f50726f6a656374206d757374206265206f70656e00000000000000000000000060448201526064016101d9565b33600160a060020a038216146103d85760405160e560020a62461bcd02815260206004820152602960248201527f4f6e6c792074686520656d706c6f7965722063616e2072656a6563742074686960448201527f732072657175657374000000000000000000000000000000000000000000000060648201526084016101d9565b60008381526001602081815260409283902060038101805460ff19166002179055909101548251868152600160a060020a03909116918101919091527f490ad67e4c8b3b9c1d11dfcd7f02e155190b8f6feff3a9d9e9df3721f0f74e5791015b60405180910390a1505050565b60008181526001602081905260409091200154600160a060020a03166104805760405160e560020a62461bcd0281526004016101d990610cdd565b60008181526001602052604081206003015460ff1660028111156104a6576104a6610bbb565b146104f65760405160e560020a62461bcd02815260206004820152601960248201527f5265717565737420616c72656164792070726f6365737365640000000000000060448201526064016101d9565b600080546040517ff0f3f2c80000000000000000000000000000000000000000000000000000000081526004810184905282918291600160a060020a039091169063f0f3f2c890602401600060405180830381865afa15801561055d573d6000803e3d6000fd5b505050506040513d6000823e601f3d908101601f191682016040526105859190810190610e0e565b9197509550935060019250610598915050565b8260018111156105aa576105aa610bbb565b146105fa5760405160e560020a62461bcd02815260206004820152601460248201527f50726f6a656374206d757374206265206f70656e00000000000000000000000060448201526064016101d9565b33600160a060020a0382161461067b5760405160e560020a62461bcd02815260206004820152602960248201527f4f6e6c792074686520656d706c6f7965722063616e206163636570742074686960448201527f732072657175657374000000000000000000000000000000000000000000000060648201526084016101d9565b8234146106cd5760405160e560020a62461bcd02815260206004820152601c60248201527f496e636f72726563742072657761726420616d6f756e742073656e740000000060448201526064016101d9565b60008481526001602081905260408083209091015490518591600160a060020a031690849083906106fd90610b95565b600160a060020a03938416815292909116602083015260408201526060016040518091039082f0905080158015610738573d6000803e3d6000fd5b5060008681526001602081815260409283902060038101805474ffffffffffffffffffffffffffffffffffffffffff1916610100600160a060020a0388811691820260ff1916929092178617909255919093015484518b8152911691810191909152918201529091507fac8064fea85b95641f19e230ba9da498102d474473fe4b103466cb224daf5e019060600160405180910390a15050505050565b600082118015610875575060008054906101000a9004600160a060020a0316600160a060020a03166336fbad266040518163ffffffff167c0100000000000000000000000000000000000000000000000000000000028152600401602060405180830381865afa15801561084d573d6000803e3d6000fd5b505050506040513d601f19601f820116820180604052508101906108719190610ec4565b8211155b6108c45760405160e560020a62461bcd02815260206004820152601260248201527f496e76616c69642070726f6a656374204944000000000000000000000000000060448201526064016101d9565b600080546040517ff0f3f2c800000000000000000000000000000000000000000000000000000000815260048101859052600160a060020a039091169063f0f3f2c890602401600060405180830381865afa158015610927573d6000803e3d6000fd5b505050506040513d6000823e601f3d908101601f1916820160405261094f9190810190610e0e565b5094506001935061095f92505050565b81600181111561097157610971610bbb565b146109c15760405160e560020a62461bcd02815260206004820152601360248201527f50726f6a656374206973206e6f74206f70656e0000000000000000000000000060448201526064016101d9565b6040805160a08101825284815233602082015290810183905260608101600081526000602091820181905285815260018083526040918290208451815592840151838201805473ffffffffffffffffffffffffffffffffffffffff1916600160a060020a039092169190911790559083015160028084019190915560608401516003840180549193909260ff19909216918490811115610a6357610a63610bbb565b02179055506080919091015160039091018054600160a060020a039092166101000274ffffffffffffffffffffffffffffffffffffffff0019909216919091179055604080518481523360208201527f48b98ad7a8a8dbe21cc82bf98710ad4d2cdd949ccac393692e4d9a1722c162c79101610438565b6040805160a0808201835260008083526020808401829052838501829052606080850183905260808501839052868352600180835292869020865194850187528054855292830154600160a060020a0316918401919091526002808301549584019590955260038201549394929391929084019160ff1690811115610b6157610b61610bbb565b6002811115610b7257610b72610bbb565b8152600391909101546101009004600160a060020a031660209091015292915050565b6102dc80610ede83390190565b600060208284031215610bb457600080fd5b5035919050565b7f4e487b7100000000000000000000000000000000000000000000000000000000600052602160045260246000fd5b60038110610c21577f4e487b7100000000000000000000000000000000000000000000000000000000600052602160045260246000fd5b9052565b858152600160a060020a03851660208201526040810184905260a08101610c4f6060830185610bea565b600160a060020a03831660808301529695505050505050565b60008060408385031215610c7b57600080fd5b50508035926020909101359150565b600060a08201905082518252600160a060020a036020840151166020830152604083015160408301526060830151610cc56060840182610bea565b50608092830151600160a060020a0316919092015290565b60208082526022908201527f4e6f20726571756573742065786973747320666f7220746869732070726f6a6560408201527f6374000000000000000000000000000000000000000000000000000000000000606082015260800190565b7f4e487b7100000000000000000000000000000000000000000000000000000000600052604160045260246000fd5b600082601f830112610d7a57600080fd5b815167ffffffffffffffff811115610d9457610d94610d3a565b604051601f8201601f19908116603f0116810167ffffffffffffffff81118282101715610dc357610dc3610d3a565b604052818152838201602001851015610ddb57600080fd5b60005b82811015610dfa57602081860181015183830182015201610dde565b506000918101602001919091529392505050565b60008060008060008060c08789031215610e2757600080fd5b8651602088015190965067ffffffffffffffff811115610e4657600080fd5b610e5289828a01610d69565b955050604087015167ffffffffffffffff811115610e6f57600080fd5b610e7b89828a01610d69565b606089015160808a01519196509450905060028110610e9957600080fd5b60a0880151909250600160a060020a0381168114610eb657600080fd5b809150509295509295509295565b600060208284031215610ed657600080fd5b505191905056fe60806040526040516102dc3803806102dc8339810160408190526020916072565b60008054600160a060020a03948516600160a060020a031991821617909155600180549390941692169190911790915560025560a9565b8051600160a060020a0381168114606d57600080fd5b919050565b600080600060608486031215608657600080fd5b608d846057565b92506099602085016057565b9150604084015190509250925092565b610224806100b86000396000f3fe608060405234801561001057600080fd5b5060043610610068577c0100000000000000000000000000000000000000000000000000000000600035046369d89575811461006d578063a37dda2c14610077578063aa8c217c146100c1578063ae200e79146100d8575b600080fd5b6100756100f8565b005b6000546100979073ffffffffffffffffffffffffffffffffffffffff1681565b60405173ffffffffffffffffffffffffffffffffffffffff90911681526020015b60405180910390f35b6100ca60025481565b6040519081526020016100b8565b6001546100979073ffffffffffffffffffffffffffffffffffffffff1681565b60015473ffffffffffffffffffffffffffffffffffffffff1633146101a3576040517f08c379a000000000000000000000000000000000000000000000000000000000815260206004820152602360248201527f4f6e6c792074686520656d706c6f7965722063616e2072656c6561736520667560448201527f6e64730000000000000000000000000000000000000000000000000000000000606482015260840160405180910390fd5b6000805460025460405173ffffffffffffffffffffffffffffffffffffffff9092169281156108fc029290818181858888f193505050501580156101eb573d6000803e3d6000fd5b5056fea2646970667358221220ac6d98b86d1b64ef5c54858337fc2368b5ad8d638a58bb3925f1c66753ddc7fc64736f6c63430008220033a26469706673582212202c92dd665efe9bcf3f57670827ba9ac72439075b41841708889725c9bacb01ac64736f6c63430008220033",
  "immutableReferences": {},
  "source": "// SPDX-License-Identifier: MIT\r\npragma solidity ^0.8.0;\r\n\r\nimport \"./Projects.sol\";\r\n\r\ncontract Escrow {\r\n    address public freelancer;\r\n    address public employer;\r\n    uint public amount;\r\n\r\n    constructor(address _freelancer, address _employer, uint _amount) payable {\r\n        freelancer = _freelancer;\r\n        employer = _employer;\r\n        amount = _amount;\r\n    }\r\n\r\n    function releaseFunds() external {\r\n        require(msg.sender == employer, \"Only the employer can release funds\");\r\n        payable(freelancer).transfer(amount);\r\n    }\r\n}\r\n\r\ncontract RequestManager {\r\n\r\n    Projects public projectsContract;\r\n\r\n    enum RequestStatus { Pending, Accepted, Rejected }\r\n\r\n    struct Request {\r\n        uint projectId;\r\n        address freelancer;\r\n        uint freelancerRating;\r\n        RequestStatus status;\r\n        Escrow escrowContract;\r\n    }\r\n\r\n    mapping(uint => Request) public requests;\r\n\r\n    event RequestSent(uint projectId, address freelancer);\r\n    event RequestAccepted(uint projectId, address freelancer, address escrowContract);\r\n    event RequestRejected(uint projectId, address freelancer);\r\n\r\n    constructor(address _projectsContract) {\r\n        projectsContract = Projects(_projectsContract);\r\n    }\r\n\r\n    function sendRequest(uint _projectId, uint _freelancerRating) public {\r\n        require(_projectId > 0 && _projectId <= projectsContract.projectCount(), \"Invalid project ID\");\r\n        (,, , , Projects.Status status, ) = projectsContract.getProject(_projectId);\r\n        require(status == Projects.Status.Open, \"Project is not open\");\r\n\r\n        requests[_projectId] = Request({\r\n            projectId: _projectId,\r\n            freelancer: msg.sender,\r\n            freelancerRating: _freelancerRating,\r\n            status: RequestStatus.Pending,\r\n            escrowContract: Escrow(address(0))\r\n        });\r\n\r\n        emit RequestSent(_projectId, msg.sender);\r\n    }\r\n\r\n    function acceptRequest(uint _projectId) public payable {\r\n        require(requests[_projectId].freelancer != address(0), \"No request exists for this project\");\r\n        require(requests[_projectId].status == RequestStatus.Pending, \"Request already processed\");\r\n\r\n        (, , , uint reward, Projects.Status status, address employer) = projectsContract.getProject(_projectId);\r\n        require(status == Projects.Status.Open, \"Project must be open\");\r\n        require(msg.sender == employer, \"Only the employer can accept this request\");\r\n        require(msg.value == reward, \"Incorrect reward amount sent\");\r\n\r\n        // Create new escrow contract instance with freelancer and employer details\r\n        Escrow escrow = new Escrow{value: reward}(requests[_projectId].freelancer, employer, reward);\r\n        requests[_projectId].escrowContract = escrow;\r\n\r\n        requests[_projectId].status = RequestStatus.Accepted;\r\n        emit RequestAccepted(_projectId, requests[_projectId].freelancer, address(escrow));\r\n    }\r\n\r\n    function rejectRequest(uint _projectId) public {\r\n        require(requests[_projectId].freelancer != address(0), \"No request exists for this project\");\r\n        require(requests[_projectId].status == RequestStatus.Pending, \"Request already processed\");\r\n\r\n        (, , , , Projects.Status status, address employer) = projectsContract.getProject(_projectId);\r\n        require(status == Projects.Status.Open, \"Project must be open\");\r\n        require(msg.sender == employer, \"Only the employer can reject this request\");\r\n\r\n        requests[_projectId].status = RequestStatus.Rejected;\r\n        emit RequestRejected(_projectId, requests[_projectId].freelancer);\r\n    }\r\n\r\n    function getRequest(uint _projectId) public view returns (Request memory) {\r\n        return requests[_projectId];\r\n    }\r\n}\r\n",
  "sourcePath": "C:\\Users\\malik\\OneDrive\\Desktop\\BTECH\\Final_year_project\\proj-2\\Delance\\contracts\\RequestManager.sol",
  "compiler": {
    "name": "solc",
    "version": "0.8.34+commit.80d5c536.Emscripten.clang"
  },
  "schemaVersion": "3.4.16",
  "updatedAt": "2026-02-27T02:46:01.333Z",
  "devdoc": {
    "kind": "dev",
    "methods": {},
    "version": 1
  },
  "userdoc": {
    "kind": "user",
    "methods": {},
    "version": 1
  }
}